{
  "contractName": "Knitts",
  "abi": [
    {
      "inputs": [],
      "name": "depositMore",
      "outputs": [],
      "stateMutability": "payable",
      "type": "function",
      "payable": true
    },
    {
      "inputs": [
        {
          "internalType": "uint256",
          "name": "_entryFee",
          "type": "uint256"
        },
        {
          "internalType": "uint256",
          "name": "_numPlayers",
          "type": "uint256"
        },
        {
          "internalType": "uint256",
          "name": "_duration",
          "type": "uint256"
        }
      ],
      "name": "createLeague",
      "outputs": [
        {
          "internalType": "address[]",
          "name": "",
          "type": "address[]"
        }
      ],
      "stateMutability": "payable",
      "type": "function",
      "payable": true
    },
    {
      "inputs": [
        {
          "internalType": "address",
          "name": "_moderator",
          "type": "address"
        }
      ],
      "name": "getBalance",
      "outputs": [
        {
          "internalType": "uint256",
          "name": "",
          "type": "uint256"
        }
      ],
      "stateMutability": "view",
      "type": "function",
      "constant": true
    },
    {
      "inputs": [],
      "name": "getDetails",
      "outputs": [
        {
          "internalType": "address[]",
          "name": "",
          "type": "address[]"
        },
        {
          "internalType": "address[]",
          "name": "",
          "type": "address[]"
        }
      ],
      "stateMutability": "view",
      "type": "function",
      "constant": true
    },
    {
      "inputs": [
        {
          "internalType": "address",
          "name": "_moderator",
          "type": "address"
        }
      ],
      "name": "removeModerator",
      "outputs": [],
      "stateMutability": "nonpayable",
      "type": "function"
    },
    {
      "inputs": [
        {
          "internalType": "string",
          "name": "_name",
          "type": "string"
        }
      ],
      "name": "register",
      "outputs": [
        {
          "internalType": "address",
          "name": "",
          "type": "address"
        }
      ],
      "stateMutability": "nonpayable",
      "type": "function"
    },
    {
      "inputs": [
        {
          "internalType": "address",
          "name": "_id",
          "type": "address"
        }
      ],
      "name": "getUserContractAddress",
      "outputs": [
        {
          "internalType": "address",
          "name": "",
          "type": "address"
        }
      ],
      "stateMutability": "view",
      "type": "function",
      "constant": true
    }
  ],
  "bytecode": "0x60806040527379e6234ff4e7db556f916febce9e52a68d0b88796000806101000a81548173ffffffffffffffffffffffffffffffffffffffff021916908373ffffffffffffffffffffffffffffffffffffffff1602179055506103e860065534801561006a57600080fd5b50614ebf8061007a6000396000f3fe6080604052600436106200007a5760003560e01c8063e9ff6f5c1162000055578063e9ff6f5c14620000fd578063f2c298be1462000133578063f8b2cb4f1462000177578063fbbf93a014620001bb576200007a565b806360173180146200007f578063869d785f146200008b578063a6e497b614620000b9575b600080fd5b62000089620001ec565b005b3480156200009857600080fd5b50620000b76004803603810190620000b1919062000a0f565b6200028c565b005b348015620000c657600080fd5b50620000e56004803603810190620000df919062000a0f565b620002e7565b604051620000f4919062000c94565b60405180910390f35b6200011b600480360381019062000115919062000a80565b620003e6565b6040516200012a919062000d42565b60405180910390f35b3480156200014057600080fd5b506200015f600480360381019062000159919062000a3b565b620006c8565b6040516200016e919062000c94565b60405180910390f35b3480156200018457600080fd5b50620001a360048036038101906200019d919062000a0f565b620007e7565b604051620001b2919062000e07565b60405180910390f35b348015620001c857600080fd5b50620001d362000830565b604051620001e392919062000d66565b60405180910390f35b6000341162000232576040517f08c379a0000000000000000000000000000000000000000000000000000000008152600401620002299062000dc3565b60405180910390fd5b34600360003373ffffffffffffffffffffffffffffffffffffffff1673ffffffffffffffffffffffffffffffffffffffff168152602001908152602001600020600082825462000283919062000ee0565b92505081905550565b6000600260008373ffffffffffffffffffffffffffffffffffffffff1673ffffffffffffffffffffffffffffffffffffffff16815260200190815260200160002060006101000a81548160ff02191690831515021790555050565b600060011515600860008473ffffffffffffffffffffffffffffffffffffffff1673ffffffffffffffffffffffffffffffffffffffff16815260200190815260200160002060009054906101000a900460ff161515146200037f576040517f08c379a0000000000000000000000000000000000000000000000000000000008152600401620003769062000da1565b60405180910390fd5b600760008373ffffffffffffffffffffffffffffffffffffffff1673ffffffffffffffffffffffffffffffffffffffff16815260200190815260200160002060009054906101000a900473ffffffffffffffffffffffffffffffffffffffff169050919050565b60606001339080600181540180825580915050600190039060005260206000200160009091909190916101000a81548173ffffffffffffffffffffffffffffffffffffffff021916908373ffffffffffffffffffffffffffffffffffffffff16021790555034600360003373ffffffffffffffffffffffffffffffffffffffff1673ffffffffffffffffffffffffffffffffffffffff16815260200190815260200160002060008282546200049c919062000ee0565b925050819055506001600260003373ffffffffffffffffffffffffffffffffffffffff1673ffffffffffffffffffffffffffffffffffffffff16815260200190815260200160002060006101000a81548160ff021916908315150217905550600360003373ffffffffffffffffffffffffffffffffffffffff1673ffffffffffffffffffffffffffffffffffffffff16815260200190815260200160002054838562000549919062000f3d565b11156200058d576040517f08c379a0000000000000000000000000000000000000000000000000000000008152600401620005849062000de5565b60405180910390fd5b60003385858530604051620005a29062000953565b620005b295949392919062000ce5565b604051809103906000f080158015620005cf573d6000803e3d6000fd5b5090506004819080600181540180825580915050600190039060005260206000200160009091909190916101000a81548173ffffffffffffffffffffffffffffffffffffffff021916908373ffffffffffffffffffffffffffffffffffffffff1602179055506004805480602002602001604051908101604052809291908181526020018280548015620006b957602002820191906000526020600020905b8160009054906101000a900473ffffffffffffffffffffffffffffffffffffffff1673ffffffffffffffffffffffffffffffffffffffff16815260200190600101908083116200066e575b50505050509150509392505050565b6000803383604051620006db9062000961565b620006e892919062000cb1565b604051809103906000f08015801562000705573d6000803e3d6000fd5b5090506001600860003373ffffffffffffffffffffffffffffffffffffffff1673ffffffffffffffffffffffffffffffffffffffff16815260200190815260200160002060006101000a81548160ff02191690831515021790555080600760003373ffffffffffffffffffffffffffffffffffffffff1673ffffffffffffffffffffffffffffffffffffffff16815260200190815260200160002060006101000a81548173ffffffffffffffffffffffffffffffffffffffff021916908373ffffffffffffffffffffffffffffffffffffffff16021790555080915050919050565b6000600360008373ffffffffffffffffffffffffffffffffffffffff1673ffffffffffffffffffffffffffffffffffffffff168152602001908152602001600020549050919050565b6060806001600481805480602002602001604051908101604052809291908181526020018280548015620008ba57602002820191906000526020600020905b8160009054906101000a900473ffffffffffffffffffffffffffffffffffffffff1673ffffffffffffffffffffffffffffffffffffffff16815260200190600101908083116200086f575b50505050509150808054806020026020016040519081016040528092919081815260200182805480156200094457602002820191906000526020600020905b8160009054906101000a900473ffffffffffffffffffffffffffffffffffffffff1673ffffffffffffffffffffffffffffffffffffffff1681526020019060010190808311620008f9575b50505050509050915091509091565b61285a80620010c583390190565b61156b806200391f83390190565b600062000986620009808462000e58565b62000e24565b9050828152602081018484840111156200099f57600080fd5b620009ac84828562000fdc565b509392505050565b600081359050620009c58162001090565b92915050565b600082601f830112620009dd57600080fd5b8135620009ef8482602086016200096f565b91505092915050565b60008135905062000a0981620010aa565b92915050565b60006020828403121562000a2257600080fd5b600062000a3284828501620009b4565b91505092915050565b60006020828403121562000a4e57600080fd5b600082013567ffffffffffffffff81111562000a6957600080fd5b62000a7784828501620009cb565b91505092915050565b60008060006060848603121562000a9657600080fd5b600062000aa686828701620009f8565b935050602062000ab986828701620009f8565b925050604062000acc86828701620009f8565b9150509250925092565b600062000ae4838362000af0565b60208301905092915050565b62000afb8162000f9e565b82525050565b62000b0c8162000f9e565b82525050565b600062000b1f8262000e9b565b62000b2b818562000ebe565b935062000b388362000e8b565b8060005b8381101562000b6f57815162000b53888262000ad6565b975062000b608362000eb1565b92505060018101905062000b3c565b5085935050505092915050565b600062000b898262000ea6565b62000b95818562000ecf565b935062000ba781856020860162000feb565b62000bb2816200107f565b840191505092915050565b600062000bcc60158362000ecf565b91507f54686520757365722073686f756c6420657869737400000000000000000000006000830152602082019050919050565b600062000c0e601f8362000ecf565b91507f596f75206e65656420746f206465706f73697420736f6d6520616d6f756e74006000830152602082019050919050565b600062000c5060148362000ecf565b91507f496e73756666696369656e74206465706f7369740000000000000000000000006000830152602082019050919050565b62000c8e8162000fd2565b82525050565b600060208201905062000cab600083018462000b01565b92915050565b600060408201905062000cc8600083018562000b01565b818103602083015262000cdc818462000b7c565b90509392505050565b600060a08201905062000cfc600083018862000b01565b62000d0b602083018762000c83565b62000d1a604083018662000c83565b62000d29606083018562000c83565b62000d38608083018462000b01565b9695505050505050565b6000602082019050818103600083015262000d5e818462000b12565b905092915050565b6000604082019050818103600083015262000d82818562000b12565b9050818103602083015262000d98818462000b12565b90509392505050565b6000602082019050818103600083015262000dbc8162000bbd565b9050919050565b6000602082019050818103600083015262000dde8162000bff565b9050919050565b6000602082019050818103600083015262000e008162000c41565b9050919050565b600060208201905062000e1e600083018462000c83565b92915050565b6000604051905081810181811067ffffffffffffffff8211171562000e4e5762000e4d62001050565b5b8060405250919050565b600067ffffffffffffffff82111562000e765762000e7562001050565b5b601f19601f8301169050602081019050919050565b6000819050602082019050919050565b600081519050919050565b600081519050919050565b6000602082019050919050565b600082825260208201905092915050565b600082825260208201905092915050565b600062000eed8262000fd2565b915062000efa8362000fd2565b9250827fffffffffffffffffffffffffffffffffffffffffffffffffffffffffffffffff0382111562000f325762000f3162001021565b5b828201905092915050565b600062000f4a8262000fd2565b915062000f578362000fd2565b9250817fffffffffffffffffffffffffffffffffffffffffffffffffffffffffffffffff048311821515161562000f935762000f9262001021565b5b828202905092915050565b600062000fab8262000fb2565b9050919050565b600073ffffffffffffffffffffffffffffffffffffffff82169050919050565b6000819050919050565b82818337600083830152505050565b60005b838110156200100b57808201518184015260208101905062000fee565b838111156200101b576000848401525b50505050565b7f4e487b7100000000000000000000000000000000000000000000000000000000600052601160045260246000fd5b7f4e487b7100000000000000000000000000000000000000000000000000000000600052604160045260246000fd5b6000601f19601f8301169050919050565b6200109b8162000f9e565b8114620010a757600080fd5b50565b620010b58162000fd2565b8114620010c157600080fd5b5056fe608060405260006008553480156200001657600080fd5b506040516200285a3803806200285a83398181016040528101906200003c9190620001a5565b836001819055508260028190555084600560006101000a81548173ffffffffffffffffffffffffffffffffffffffff021916908373ffffffffffffffffffffffffffffffffffffffff1602179055508160068190555060006003819055506000600760006101000a81548160ff0219169083151502179055506000600760016101000a81548160ff0219169083151502179055506000600760026101000a81548160ff021916908315150217905550846000806101000a81548173ffffffffffffffffffffffffffffffffffffffff021916908373ffffffffffffffffffffffffffffffffffffffff16021790555080600a60006101000a81548173ffffffffffffffffffffffffffffffffffffffff021916908373ffffffffffffffffffffffffffffffffffffffff160217905550505050505062000299565b600081519050620001888162000265565b92915050565b6000815190506200019f816200027f565b92915050565b600080600080600060a08688031215620001be57600080fd5b6000620001ce8882890162000177565b9550506020620001e1888289016200018e565b9450506040620001f4888289016200018e565b935050606062000207888289016200018e565b92505060806200021a8882890162000177565b9150509295509295909350565b600062000234826200023b565b9050919050565b600073ffffffffffffffffffffffffffffffffffffffff82169050919050565b6000819050919050565b620002708162000227565b81146200027c57600080fd5b50565b6200028a816200025b565b81146200029657600080fd5b50565b6125b180620002a96000396000f3fe60806040526004361061007b5760003560e01c8063c3b7a80f1161004e578063c3b7a80f14610134578063d235407b1461014b578063e4fc6b6d14610189578063fbbf93a0146101a05761007b565b80632185ce831461008057806324fd7918146100b05780632afcf480146100db578063677342ce146100f7575b600080fd5b61009a600480360381019061009591906116bf565b6101d0565b6040516100a79190612023565b60405180910390f35b3480156100bc57600080fd5b506100c561033f565b6040516100d29190611e96565b60405180910390f35b6100f560048036038101906100f09190611782565b6106fe565b005b34801561010357600080fd5b5061011e60048036038101906101199190611782565b6108d0565b60405161012b9190612023565b60405180910390f35b34801561014057600080fd5b50610149610949565b005b34801561015757600080fd5b50610172600480360381019061016d9190611782565b6109f6565b604051610180929190611e05565b60405180910390f35b34801561019557600080fd5b5061019e610b5c565b005b3480156101ac57600080fd5b506101b5610f1b565b6040516101c796959493929190611e35565b60405180910390f35b6000600154341015610217576040517f08c379a000000000000000000000000000000000000000000000000000000000815260040161020e90611fe3565b60405180910390fd5b6002546003541061025d576040517f08c379a000000000000000000000000000000000000000000000000000000000815260040161025490611f83565b60405180910390fd5b6000600b60006003600081548092919061027690612437565b9190505581526020019081526020016000209050858160000190805190602001906102a29291906111d8565b50848160010190805190602001906102bb9291906111d8565b50838160020190805190602001906102d49291906111d8565b50338160030160006101000a81548173ffffffffffffffffffffffffffffffffffffffff021916908373ffffffffffffffffffffffffffffffffffffffff1602179055508281600401908051906020019061033092919061125e565b50600354915050949350505050565b606060008054906101000a900473ffffffffffffffffffffffffffffffffffffffff1673ffffffffffffffffffffffffffffffffffffffff163373ffffffffffffffffffffffffffffffffffffffff16146103cf576040517f08c379a00000000000000000000000000000000000000000000000000000000081526004016103c690611fa3565b60405180910390fd5b6001600760016101000a81548160ff0219169083151502179055506103f2610f91565b5060005b600354811015610470576009818154811061043a577f4e487b7100000000000000000000000000000000000000000000000000000000600052603260045260246000fd5b9060005260206000200154600860008282546104569190612266565b92505081905550808061046890612437565b9150506103f6565b50600060035460085461048391906122bc565b905060005b6003548110156106a6576000600a60009054906101000a900473ffffffffffffffffffffffffffffffffffffffff16905060008173ffffffffffffffffffffffffffffffffffffffff1663a6e497b6600b600086815260200190815260200160002060030160009054906101000a900473ffffffffffffffffffffffffffffffffffffffff166040518263ffffffff1660e01b815260040161052a9190611dea565b60206040518083038186803b15801561054257600080fd5b505afa158015610556573d6000803e3d6000fd5b505050506040513d601f19601f8201168201806040525081019061057a9190611696565b905060008190508073ffffffffffffffffffffffffffffffffffffffff1663fbf7de84600b6000878152602001908152602001600020600001600b6000888152602001908152602001600020600101600b6000898152602001908152602001600020600201600b60008a815260200190815260200160002060040160098a8154811061062f577f4e487b7100000000000000000000000000000000000000000000000000000000600052603260045260246000fd5b90600052602060002001548b306040518863ffffffff1660e01b815260040161065e9796959493929190611eb8565b600060405180830381600087803b15801561067857600080fd5b505af115801561068c573d6000803e3d6000fd5b50505050505050808061069e90612437565b915050610488565b5060098054806020026020016040519081016040528092919081815260200182805480156106f357602002820191906000526020600020905b8154815260200190600101908083116106df575b505050505091505090565b6003548110610742576040517f08c379a000000000000000000000000000000000000000000000000000000000815260040161073990612003565b60405180910390fd5b6000600b600083815260200190815260200160002060050160003373ffffffffffffffffffffffffffffffffffffffff1673ffffffffffffffffffffffffffffffffffffffff16815260200190815260200160002054141561081657600b6000828152602001908152602001600020600601339080600181540180825580915050600190039060005260206000200160009091909190916101000a81548173ffffffffffffffffffffffffffffffffffffffff021916908373ffffffffffffffffffffffffffffffffffffffff1602179055505b64e8d4a510003461082791906122bc565b600b6000838152602001908152602001600020600701600082825461084c9190612266565b9250508190555064e8d4a510003461086491906122bc565b600b600083815260200190815260200160002060050160003373ffffffffffffffffffffffffffffffffffffffff1673ffffffffffffffffffffffffffffffffffffffff16815260200190815260200160002060008282546108c69190612266565b9250508190555050565b60008060019050600083905060008290505b8183101561093e57600283836108f89190612347565b61090291906122bc565b8361090d9190612266565b905084818261091c91906122ed565b1061092957809150610939565b6001816109369190612266565b92505b6108e2565b819350505050919050565b600560009054906101000a900473ffffffffffffffffffffffffffffffffffffffff1673ffffffffffffffffffffffffffffffffffffffff163373ffffffffffffffffffffffffffffffffffffffff16146109d9576040517f08c379a00000000000000000000000000000000000000000000000000000000081526004016109d090611f43565b60405180910390fd5b6001600760006101000a81548160ff021916908315150217905550565b60006060600b600084815260200190815260200160002060030160009054906101000a900473ffffffffffffffffffffffffffffffffffffffff16600b600085815260200190815260200160002060040180805480602002602001604051908101604052809291908181526020016000905b82821015610b4d5783829060005260206000209060140201601480602002604051908101604052809291906000905b82821015610b3a578382018054610aad90612405565b80601f0160208091040260200160405190810160405280929190818152602001828054610ad990612405565b8015610b265780601f10610afb57610100808354040283529160200191610b26565b820191906000526020600020905b815481529060010190602001808311610b0957829003601f168201915b505050505081526020019060010190610a97565b5050505081526020019060010190610a68565b50505050905091509150915091565b60008054906101000a900473ffffffffffffffffffffffffffffffffffffffff1673ffffffffffffffffffffffffffffffffffffffff163373ffffffffffffffffffffffffffffffffffffffff1614610bea576040517f08c379a0000000000000000000000000000000000000000000000000000000008152600401610be190611f63565b60405180910390fd5b600047905060005b600354811015610eae576000600b600083815260200190815260200160002090508060030160009054906101000a900473ffffffffffffffffffffffffffffffffffffffff1673ffffffffffffffffffffffffffffffffffffffff166108fc600854600a610c6091906122ed565b8560098681548110610c9b577f4e487b7100000000000000000000000000000000000000000000000000000000600052603260045260246000fd5b90600052602060002001546003610cb291906122ed565b610cbc91906122ed565b610cc691906122bc565b9081150290604051600060405180830381858888f19350505050158015610cf1573d6000803e3d6000fd5b5060005b8160060180549050811015610e99576000826006018281548110610d42577f4e487b7100000000000000000000000000000000000000000000000000000000600052603260045260246000fd5b9060005260206000200160009054906101000a900473ffffffffffffffffffffffffffffffffffffffff1690508073ffffffffffffffffffffffffffffffffffffffff166108fc8460070154600854600a610d9d91906122ed565b610da791906122ed565b8560050160008573ffffffffffffffffffffffffffffffffffffffff1673ffffffffffffffffffffffffffffffffffffffff168152602001908152602001600020548860098981548110610e24577f4e487b7100000000000000000000000000000000000000000000000000000000600052603260045260246000fd5b90600052602060002001546006610e3b91906122ed565b610e4591906122ed565b610e4f91906122ed565b610e5991906122bc565b9081150290604051600060405180830381858888f19350505050158015610e84573d6000803e3d6000fd5b50508080610e9190612437565b915050610cf5565b50508080610ea690612437565b915050610bf2565b50600560009054906101000a900473ffffffffffffffffffffffffffffffffffffffff1673ffffffffffffffffffffffffffffffffffffffff166108fc479081150290604051600060405180830381858888f19350505050158015610f17573d6000803e3d6000fd5b5050565b600080600080600080600560009054906101000a900473ffffffffffffffffffffffffffffffffffffffff16600154600254600760009054906101000a900460ff16600760019054906101000a900460ff16600760029054906101000a900460ff16955095509550955095509550909192939495565b60606001600760016101000a81548160ff0219169083151502179055610fec576040517f08c379a0000000000000000000000000000000000000000000000000000000008152600401610fe390611fc3565b60405180910390fd5b606080600990805190602001906110049291906112bc565b5060005b600354811015611180576000805b600b600084815260200190815260200160002060060180549050811015611131576000600b60008581526020019081526020016000206006018281548110611087577f4e487b7100000000000000000000000000000000000000000000000000000000600052603260045260246000fd5b9060005260206000200160009054906101000a900473ffffffffffffffffffffffffffffffffffffffff169050611110600b600086815260200190815260200160002060050160008373ffffffffffffffffffffffffffffffffffffffff1673ffffffffffffffffffffffffffffffffffffffff168152602001908152602001600020546108d0565b8361111b9190612266565b925050808061112990612437565b915050611016565b506000818261114091906122ed565b905060098190806001815401808255809150506001900390600052602060002001600090919091909150555050808061117890612437565b915050611008565b5060098054806020026020016040519081016040528092919081815260200182805480156111cd57602002820191906000526020600020905b8154815260200190600101908083116111b9575b505050505091505090565b8280546111e490612405565b90600052602060002090601f016020900481019282611206576000855561124d565b82601f1061121f57805160ff191683800117855561124d565b8280016001018555821561124d579182015b8281111561124c578251825591602001919060010190611231565b5b50905061125a9190611309565b5090565b8280548282559060005260206000209060140281019282156112ab579160200282015b828111156112aa5782518290601461129a929190611326565b5091602001919060140190611281565b5b5090506112b89190611379565b5090565b8280548282559060005260206000209081019282156112f8579160200282015b828111156112f75782518255916020019190600101906112dc565b5b5090506113059190611309565b5090565b5b8082111561132257600081600090555060010161130a565b5090565b8260148101928215611368579160200282015b8281111561136757825182908051906020019061135792919061139d565b5091602001919060010190611339565b5b5090506113759190611423565b5090565b5b8082111561139957600081816113909190611447565b5060140161137a565b5090565b8280546113a990612405565b90600052602060002090601f0160209004810192826113cb5760008555611412565b82601f106113e457805160ff1916838001178555611412565b82800160010185558215611412579182015b828111156114115782518255916020019190600101906113f6565b5b50905061141f9190611309565b5090565b5b80821115611443576000818161143a919061145a565b50600101611424565b5090565b5080601401906114579190611423565b50565b50805461146690612405565b6000825580601f106114785750611497565b601f0160209004906000526020600020908101906114969190611309565b5b50565b60006114ad6114a88461206f565b61203e565b9050808382526020820190508260005b858110156114ed57813585016114d38882611606565b8452602084019350602083019250506001810190506114bd565b5050509392505050565b600061150a6115058461209b565b61203e565b9050808260005b858110156115415781358501611527888261162d565b845260208401935060208301925050600181019050611511565b5050509392505050565b600061155e611559846120c1565b61203e565b90508281526020810184848401111561157657600080fd5b6115818482856123c3565b509392505050565b600061159c611597846120f1565b61203e565b9050828152602081018484840111156115b457600080fd5b6115bf8482856123c3565b509392505050565b6000815190506115d68161254d565b92915050565b600082601f8301126115ed57600080fd5b81356115fd84826020860161149a565b91505092915050565b600082601f83011261161757600080fd5b60146116248482856114f7565b91505092915050565b600082601f83011261163e57600080fd5b813561164e84826020860161154b565b91505092915050565b600082601f83011261166857600080fd5b8135611678848260208601611589565b91505092915050565b60008135905061169081612564565b92915050565b6000602082840312156116a857600080fd5b60006116b6848285016115c7565b91505092915050565b600080600080608085870312156116d557600080fd5b600085013567ffffffffffffffff8111156116ef57600080fd5b6116fb87828801611657565b945050602085013567ffffffffffffffff81111561171857600080fd5b61172487828801611657565b935050604085013567ffffffffffffffff81111561174157600080fd5b61174d87828801611657565b925050606085013567ffffffffffffffff81111561176a57600080fd5b611776878288016115dc565b91505092959194509250565b60006020828403121561179457600080fd5b60006117a284828501611681565b91505092915050565b60006117b7838361190b565b905092915050565b60006117cb8383611980565b905092915050565b60006117df8383611a61565b905092915050565b60006117f38383611a9a565b905092915050565b60006118078383611dcc565b60208301905092915050565b61181c8161237b565b82525050565b600061182d82612194565b6118378185612217565b93508360208202850161184985612121565b8060005b85811015611885578484038952815161186685826117ab565b9450611871836121d6565b925060208a0199505060018101905061184d565b50829750879550505050505092915050565b60006118a28261219f565b6118ac8185612217565b9350836020820285016118be85612131565b8060005b858110156118f9578484038952816118da85826117bf565b94506118e5836121e3565b925060208a019950506001810190506118c2565b50829750879550505050505092915050565b6000611916826121aa565b6119208185612228565b93508360208202850161193285612146565b8060005b8581101561196e578484038952815161194f85826117d3565b945061195a836121f0565b925060208a01995050600181019050611936565b50829750879550505050505092915050565b600061198b826121b5565b6119958185612228565b9350836020820285016119a785612150565b8060005b858110156119e2578484038952816119c385826117e7565b94506119ce836121fd565b925060208a019950506001810190506119ab565b50829750879550505050505092915050565b60006119ff826121c0565b611a098185612233565b9350611a148361215a565b8060005b83811015611a45578151611a2c88826117fb565b9750611a378361220a565b925050600181019050611a18565b5085935050505092915050565b611a5b8161238d565b82525050565b6000611a6c826121cb565b611a768185612244565b9350611a868185602086016123d2565b611a8f8161253c565b840191505092915050565b60008154611aa781612405565b611ab18186612244565b94506001821660008114611acc5760018114611ade57611b11565b60ff1983168652602086019350611b11565b611ae78561216a565b60005b83811015611b0957815481890152600182019150602081019050611aea565b808801955050505b50505092915050565b60008154611b2781612405565b611b318186612255565b94506001821660008114611b4c5760018114611b5e57611b91565b60ff1983168652602086019350611b91565b611b678561217f565b60005b83811015611b8957815481890152600182019150602081019050611b6a565b808801955050505b50505092915050565b6000611ba7602383612255565b91507f6f6e6c79206d6f64657261746f722063616e20737461727420746865206c656160008301527f67756500000000000000000000000000000000000000000000000000000000006020830152604082019050919050565b6000611c0d602783612255565b91507f6f6e6c79206f7267616e697a6174696f6e2063616e206469737472696275746560008301527f207072697a6573000000000000000000000000000000000000000000000000006020830152604082019050919050565b6000611c73601583612255565b91507f4d6178696d756d206c696d6974207265616368656400000000000000000000006000830152602082019050919050565b6000611cb3602483612255565b91507f6f6e6c79206f7267616e697a6174696f6e2063616e20656e6420746865206c6560008301527f61677565000000000000000000000000000000000000000000000000000000006020830152604082019050919050565b6000611d19601683612255565b91507f7468652067616d6520686173206e6f7420656e646564000000000000000000006000830152602082019050919050565b6000611d59601683612255565b91507f496e73756666696369656e7420656e74727920666565000000000000000000006000830152602082019050919050565b6000611d99601283612255565b91507f496e76616c69642070726f6a65637420696400000000000000000000000000006000830152602082019050919050565b611dd5816123b9565b82525050565b611de4816123b9565b82525050565b6000602082019050611dff6000830184611813565b92915050565b6000604082019050611e1a6000830185611813565b8181036020830152611e2c8184611822565b90509392505050565b600060c082019050611e4a6000830189611813565b611e576020830188611ddb565b611e646040830187611ddb565b611e716060830186611a52565b611e7e6080830185611a52565b611e8b60a0830184611a52565b979650505050505050565b60006020820190508181036000830152611eb081846119f4565b905092915050565b600060e0820190508181036000830152611ed2818a611b1a565b90508181036020830152611ee68189611b1a565b90508181036040830152611efa8188611b1a565b90508181036060830152611f0e8187611897565b9050611f1d6080830186611ddb565b611f2a60a0830185611ddb565b611f3760c0830184611813565b98975050505050505050565b60006020820190508181036000830152611f5c81611b9a565b9050919050565b60006020820190508181036000830152611f7c81611c00565b9050919050565b60006020820190508181036000830152611f9c81611c66565b9050919050565b60006020820190508181036000830152611fbc81611ca6565b9050919050565b60006020820190508181036000830152611fdc81611d0c565b9050919050565b60006020820190508181036000830152611ffc81611d4c565b9050919050565b6000602082019050818103600083015261201c81611d8c565b9050919050565b60006020820190506120386000830184611ddb565b92915050565b6000604051905081810181811067ffffffffffffffff821117156120655761206461250d565b5b8060405250919050565b600067ffffffffffffffff82111561208a5761208961250d565b5b602082029050602081019050919050565b600067ffffffffffffffff8211156120b6576120b561250d565b5b602082029050919050565b600067ffffffffffffffff8211156120dc576120db61250d565b5b601f19601f8301169050602081019050919050565b600067ffffffffffffffff82111561210c5761210b61250d565b5b601f19601f8301169050602081019050919050565b6000819050602082019050919050565b60008190508160005260206000209050919050565b6000819050919050565b6000819050919050565b6000819050602082019050919050565b60008190508160005260206000209050919050565b60008190508160005260206000209050919050565b600081519050919050565b600081549050919050565b600060149050919050565b600060149050919050565b600081519050919050565b600081519050919050565b6000602082019050919050565b6000601482019050919050565b6000602082019050919050565b6000600182019050919050565b6000602082019050919050565b600082825260208201905092915050565b600081905092915050565b600082825260208201905092915050565b600082825260208201905092915050565b600082825260208201905092915050565b6000612271826123b9565b915061227c836123b9565b9250827fffffffffffffffffffffffffffffffffffffffffffffffffffffffffffffffff038211156122b1576122b0612480565b5b828201905092915050565b60006122c7826123b9565b91506122d2836123b9565b9250826122e2576122e16124af565b5b828204905092915050565b60006122f8826123b9565b9150612303836123b9565b9250817fffffffffffffffffffffffffffffffffffffffffffffffffffffffffffffffff048311821515161561233c5761233b612480565b5b828202905092915050565b6000612352826123b9565b915061235d836123b9565b9250828210156123705761236f612480565b5b828203905092915050565b600061238682612399565b9050919050565b60008115159050919050565b600073ffffffffffffffffffffffffffffffffffffffff82169050919050565b6000819050919050565b82818337600083830152505050565b60005b838110156123f05780820151818401526020810190506123d5565b838111156123ff576000848401525b50505050565b6000600282049050600182168061241d57607f821691505b60208210811415612431576124306124de565b5b50919050565b6000612442826123b9565b91507fffffffffffffffffffffffffffffffffffffffffffffffffffffffffffffffff82141561247557612474612480565b5b600182019050919050565b7f4e487b7100000000000000000000000000000000000000000000000000000000600052601160045260246000fd5b7f4e487b7100000000000000000000000000000000000000000000000000000000600052601260045260246000fd5b7f4e487b7100000000000000000000000000000000000000000000000000000000600052602260045260246000fd5b7f4e487b7100000000000000000000000000000000000000000000000000000000600052604160045260246000fd5b6000601f19601f8301169050919050565b6125568161237b565b811461256157600080fd5b50565b61256d816123b9565b811461257857600080fd5b5056fea26469706673582212207eb66e2d24c512d8ab26e1716792767e2f79a04ba4144b83b9bcb32f9f88157b64736f6c63430008000033608060405260006002553480156200001657600080fd5b506040516200156b3803806200156b83398181016040528101906200003c9190620001d7565b8060009080519060200190620000549291906200009e565b5081600160006101000a81548173ffffffffffffffffffffffffffffffffffffffff021916908373ffffffffffffffffffffffffffffffffffffffff1602179055505050620003b0565b828054620000ac9062000302565b90600052602060002090601f016020900481019282620000d057600085556200011c565b82601f10620000eb57805160ff19168380011785556200011c565b828001600101855582156200011c579182015b828111156200011b578251825591602001919060010190620000fe565b5b5090506200012b91906200012f565b5090565b5b808211156200014a57600081600090555060010162000130565b5090565b6000620001656200015f8462000265565b62000231565b9050828152602081018484840111156200017e57600080fd5b6200018b848285620002cc565b509392505050565b600081519050620001a48162000396565b92915050565b600082601f830112620001bc57600080fd5b8151620001ce8482602086016200014e565b91505092915050565b60008060408385031215620001eb57600080fd5b6000620001fb8582860162000193565b925050602083015167ffffffffffffffff8111156200021957600080fd5b6200022785828601620001aa565b9150509250929050565b6000604051905081810181811067ffffffffffffffff821117156200025b576200025a62000367565b5b8060405250919050565b600067ffffffffffffffff82111562000283576200028262000367565b5b601f19601f8301169050602081019050919050565b6000620002a582620002ac565b9050919050565b600073ffffffffffffffffffffffffffffffffffffffff82169050919050565b60005b83811015620002ec578082015181840152602081019050620002cf565b83811115620002fc576000848401525b50505050565b600060028204905060018216806200031b57607f821691505b6020821081141562000332576200033162000338565b5b50919050565b7f4e487b7100000000000000000000000000000000000000000000000000000000600052602260045260246000fd5b7f4e487b7100000000000000000000000000000000000000000000000000000000600052604160045260246000fd5b620003a18162000298565b8114620003ad57600080fd5b50565b6111ab80620003c06000396000f3fe608060405234801561001057600080fd5b50600436106100365760003560e01c8063fbbf93a01461003b578063fbf7de8414610059575b600080fd5b610043610075565b6040516100509190610de0565b60405180910390f35b610073600480360381019061006e9190610a06565b6103f9565b005b61007d610514565b6003601480602002604051908101604052809291906000905b828210156103f0578382600702016040518060e00160405290816000820180546100bf9061102e565b80601f01602080910402602001604051908101604052809291908181526020018280546100eb9061102e565b80156101385780601f1061010d57610100808354040283529160200191610138565b820191906000526020600020905b81548152906001019060200180831161011b57829003601f168201915b505050505081526020016001820180546101519061102e565b80601f016020809104026020016040519081016040528092919081815260200182805461017d9061102e565b80156101ca5780601f1061019f576101008083540402835291602001916101ca565b820191906000526020600020905b8154815290600101906020018083116101ad57829003601f168201915b505050505081526020016002820180546101e39061102e565b80601f016020809104026020016040519081016040528092919081815260200182805461020f9061102e565b801561025c5780601f106102315761010080835404028352916020019161025c565b820191906000526020600020905b81548152906001019060200180831161023f57829003601f168201915b5050505050815260200160038201805480602002602001604051908101604052809291908181526020016000905b8282101561036f5783829060005260206000209060140201601480602002604051908101604052809291906000905b8282101561035c5783820180546102cf9061102e565b80601f01602080910402602001604051908101604052809291908181526020018280546102fb9061102e565b80156103485780601f1061031d57610100808354040283529160200191610348565b820191906000526020600020905b81548152906001019060200180831161032b57829003601f168201915b5050505050815260200190600101906102b9565b505050508152602001906001019061028a565b50505050815260200160048201548152602001600582015481526020016006820160009054906101000a900473ffffffffffffffffffffffffffffffffffffffff1673ffffffffffffffffffffffffffffffffffffffff1673ffffffffffffffffffffffffffffffffffffffff168152505081526020019060010190610096565b50505050905090565b600060036002600081548092919061041090611060565b919050556014811061044b577f4e487b7100000000000000000000000000000000000000000000000000000000600052603260045260246000fd5b60070201905087816000019080519060200190610469929190610542565b5086816001019080519060200190610482929190610542565b508581600201908051906020019061049b929190610542565b50848160030190805190602001906104b49291906105c8565b50838160040181905550828160050181905550818160060160006101000a81548173ffffffffffffffffffffffffffffffffffffffff021916908373ffffffffffffffffffffffffffffffffffffffff1602179055505050505050505050565b6040518061028001604052806014905b61052c610626565b8152602001906001900390816105245790505090565b82805461054e9061102e565b90600052602060002090601f01602090048101928261057057600085556105b7565b82601f1061058957805160ff19168380011785556105b7565b828001600101855582156105b7579182015b828111156105b657825182559160200191906001019061059b565b5b5090506105c49190610679565b5090565b828054828255906000526020600020906014028101928215610615579160200282015b8281111561061457825182906014610604929190610696565b50916020019190601401906105eb565b5b50905061062291906106e9565b5090565b6040518060e00160405280606081526020016060815260200160608152602001606081526020016000815260200160008152602001600073ffffffffffffffffffffffffffffffffffffffff1681525090565b5b8082111561069257600081600090555060010161067a565b5090565b82601481019282156106d8579160200282015b828111156106d75782518290805190602001906106c792919061070d565b50916020019190600101906106a9565b5b5090506106e59190610793565b5090565b5b80821115610709576000818161070091906107b7565b506014016106ea565b5090565b8280546107199061102e565b90600052602060002090601f01602090048101928261073b5760008555610782565b82601f1061075457805160ff1916838001178555610782565b82800160010185558215610782579182015b82811115610781578251825591602001919060010190610766565b5b50905061078f9190610679565b5090565b5b808211156107b357600081816107aa91906107ca565b50600101610794565b5090565b5080601401906107c79190610793565b50565b5080546107d69061102e565b6000825580601f106107e85750610807565b601f0160209004906000526020600020908101906108069190610679565b5b50565b600061081d61081884610e33565b610e02565b9050808382526020820190508260005b8581101561085d57813585016108438882610976565b84526020840193506020830192505060018101905061082d565b5050509392505050565b600061087a61087584610e5f565b610e02565b9050808260005b858110156108b15781358501610897888261099d565b845260208401935060208301925050600181019050610881565b5050509392505050565b60006108ce6108c984610e85565b610e02565b9050828152602081018484840111156108e657600080fd5b6108f1848285610fec565b509392505050565b600061090c61090784610eb5565b610e02565b90508281526020810184848401111561092457600080fd5b61092f848285610fec565b509392505050565b60008135905061094681611147565b92915050565b600082601f83011261095d57600080fd5b813561096d84826020860161080a565b91505092915050565b600082601f83011261098757600080fd5b6014610994848285610867565b91505092915050565b600082601f8301126109ae57600080fd5b81356109be8482602086016108bb565b91505092915050565b600082601f8301126109d857600080fd5b81356109e88482602086016108f9565b91505092915050565b600081359050610a008161115e565b92915050565b600080600080600080600060e0888a031215610a2157600080fd5b600088013567ffffffffffffffff811115610a3b57600080fd5b610a478a828b016109c7565b975050602088013567ffffffffffffffff811115610a6457600080fd5b610a708a828b016109c7565b965050604088013567ffffffffffffffff811115610a8d57600080fd5b610a998a828b016109c7565b955050606088013567ffffffffffffffff811115610ab657600080fd5b610ac28a828b0161094c565b9450506080610ad38a828b016109f1565b93505060a0610ae48a828b016109f1565b92505060c0610af58a828b01610937565b91505092959891949750929550565b6000610b108383610bc4565b905092915050565b6000610b248383610cae565b905092915050565b6000610b388383610d20565b905092915050565b610b4981610fb0565b82525050565b6000610b5a82610f09565b610b648185610f67565b935083602082028501610b7685610ee5565b8060005b85811015610bb25784840389528151610b938582610b04565b9450610b9e83610f40565b925060208a01995050600181019050610b7a565b50829750879550505050505092915050565b6000610bcf82610f14565b610bd98185610f78565b935083602082028501610beb85610ef5565b8060005b85811015610c275784840389528151610c088582610b18565b9450610c1383610f4d565b925060208a01995050600181019050610bef565b50829750879550505050505092915050565b6000610c4482610f1f565b610c4e8185610f83565b935083602082028501610c6085610eff565b8060005b85811015610c9c5784840389528151610c7d8582610b2c565b9450610c8883610f5a565b925060208a01995050600181019050610c64565b50829750879550505050505092915050565b6000610cb982610f2a565b610cc38185610f8e565b9350610cd3818560208601610ffb565b610cdc81611136565b840191505092915050565b6000610cf282610f35565b610cfc8185610f9f565b9350610d0c818560208601610ffb565b610d1581611136565b840191505092915050565b600060e0830160008301518482036000860152610d3d8282610ce7565b91505060208301518482036020860152610d578282610ce7565b91505060408301518482036040860152610d718282610ce7565b91505060608301518482036060860152610d8b8282610b4f565b9150506080830151610da06080860182610dd1565b5060a0830151610db360a0860182610dd1565b5060c0830151610dc660c0860182610b40565b508091505092915050565b610dda81610fe2565b82525050565b60006020820190508181036000830152610dfa8184610c39565b905092915050565b6000604051905081810181811067ffffffffffffffff82111715610e2957610e28611107565b5b8060405250919050565b600067ffffffffffffffff821115610e4e57610e4d611107565b5b602082029050602081019050919050565b600067ffffffffffffffff821115610e7a57610e79611107565b5b602082029050919050565b600067ffffffffffffffff821115610ea057610e9f611107565b5b601f19601f8301169050602081019050919050565b600067ffffffffffffffff821115610ed057610ecf611107565b5b601f19601f8301169050602081019050919050565b6000819050602082019050919050565b6000819050919050565b6000819050919050565b600081519050919050565b600060149050919050565b600060149050919050565b600081519050919050565b600081519050919050565b6000602082019050919050565b6000602082019050919050565b6000602082019050919050565b600082825260208201905092915050565b600081905092915050565b600081905092915050565b600082825260208201905092915050565b600082825260208201905092915050565b6000610fbb82610fc2565b9050919050565b600073ffffffffffffffffffffffffffffffffffffffff82169050919050565b6000819050919050565b82818337600083830152505050565b60005b83811015611019578082015181840152602081019050610ffe565b83811115611028576000848401525b50505050565b6000600282049050600182168061104657607f821691505b6020821081141561105a576110596110d8565b5b50919050565b600061106b82610fe2565b91507fffffffffffffffffffffffffffffffffffffffffffffffffffffffffffffffff82141561109e5761109d6110a9565b5b600182019050919050565b7f4e487b7100000000000000000000000000000000000000000000000000000000600052601160045260246000fd5b7f4e487b7100000000000000000000000000000000000000000000000000000000600052602260045260246000fd5b7f4e487b7100000000000000000000000000000000000000000000000000000000600052604160045260246000fd5b6000601f19601f8301169050919050565b61115081610fb0565b811461115b57600080fd5b50565b61116781610fe2565b811461117257600080fd5b5056fea2646970667358221220ecbc087a8833c7cf0b2bc4811a691b1ff105b1b5d1f6173db6e5be74ffcc97b864736f6c63430008000033a2646970667358221220b280da8e3db9baf02896a9a83d57ed0059ab6f0569f034cf1aeb3f606e222d3a64736f6c63430008000033",
  "immutableReferences": {},
  "source": "// SPDX-License-Identifier: MIT\r\npragma solidity >=0.8.0;\r\n\r\ncontract Knitts{\r\n    //organization address here\r\n    address organization = 0x79e6234Ff4E7DB556F916FeBcE9e52a68D0B8879;\r\n    address[] moderators;//change this to mapping mapping(address=>bool)\r\n    mapping(address=>bool) valid;\r\n    mapping(address => uint) deposits;\r\n    address[] Leagues;\r\n  \taddress[] Users;\r\n    uint maxDescLength = 1000;\r\n  \tmapping(address => address) idToUser; \r\n  \tmapping(address => bool) userExists;\r\n  \t\r\n    // function addModerator() public payable{\r\n    //     require(msg.value > 0, \"You should deposit some amount\");\r\n    //     moderators.push(msg.sender);\r\n    //     deposits[msg.sender] = msg.value;\r\n    //     valid[msg.sender]=true;\r\n    // }\r\n\r\n    function depositMore() public payable{\r\n        require(msg.value > 0, \"You need to deposit some amount\");\r\n        deposits[msg.sender] += msg.value;\r\n    }\r\n\r\n    function createLeague(uint _entryFee, uint _numPlayers, uint _duration) public payable returns(address[] memory){\r\n\r\n        moderators.push(msg.sender);\r\n        deposits[msg.sender] += msg.value;\r\n        valid[msg.sender]=true;\r\n\r\n        require(_entryFee * _numPlayers <= deposits[msg.sender], \"Insufficient deposit\");\r\n        League newLeague = new League(msg.sender, _entryFee, _numPlayers, _duration, address(this));\r\n        Leagues.push(address(newLeague));\r\n        return Leagues;\r\n    }\r\n\r\n    function getBalance(address _moderator) public view returns (uint){\r\n        return deposits[_moderator];\r\n    }\r\n\r\n    function getDetails() public view returns (address [] memory, address [] memory){\r\n        return (moderators, Leagues);\r\n    }\r\n\r\n    function removeModerator(address _moderator) public {\r\n        valid[_moderator] = false;\r\n    }\r\n  \r\n  \tfunction register(string memory _name) public returns (address) {\r\n        User newUser = new User(msg.sender, _name);\r\n        userExists[msg.sender] = true;\r\n        idToUser[msg.sender] = address(newUser);\r\n        return address(newUser);\r\n    }\r\n  \r\n  \tfunction getUserContractAddress(address _id) public view returns(address) {\r\n        require(userExists[_id] == true,\"The user should exist\");\r\n        return idToUser[_id];\r\n    }\r\n}\r\n\r\ncontract League{\r\n    \r\n    address organization;\r\n    uint entryFee;\r\n    uint maxParticipants;\r\n    uint numProjects;\r\n    address [] participants;\r\n    address moderator;\r\n    uint duration;\r\n    bool started;\r\n    bool ended;\r\n    bool distributed;\r\n  \tuint total_points=0;\r\n    uint [] points;\r\n    address knittsAddress;\r\n\r\n    struct project{\r\n        string title;\r\n        string url;\r\n        string image;\r\n        address owner;\r\n        bytes[20][] description;\r\n        mapping(address => uint)investments;\r\n        address[] investors;\r\n        uint total_fund;\r\n    }\r\n\t\t\r\n    mapping(uint => project) projects;\r\n\r\n    constructor(address _moderator, uint _entryFee, uint _maxParticipants, uint _duration, address _knittsAddress){\r\n        entryFee = _entryFee;\r\n        maxParticipants = _maxParticipants;\r\n        moderator = _moderator;\r\n        duration = _duration;\r\n        numProjects = 0;\r\n        started=false;\r\n        ended=false;\r\n        distributed=false;\r\n        //organization = 0x79e6234Ff4E7DB556F916FeBcE9e52a68D0B8879; //for public net\r\n        organization = _moderator; // for local testing\r\n        knittsAddress = _knittsAddress;\r\n    }\r\n\r\n    function submitIdea(string memory title, string memory url, string memory image, bytes[20][] memory description) public payable returns(uint){\r\n        require(msg.value >= entryFee, \"Insufficient entry fee\");\r\n        require(numProjects < maxParticipants, \"Maximum limit reached\");\r\n        project storage p = projects[numProjects++];\r\n        p.title = title;\r\n        p.url = url;\r\n        p.image = image;\r\n        p.owner = msg.sender;\r\n        p.description = description;\r\n        return numProjects;\r\n    }\r\n\r\n    function invest(uint projectId) public payable{\r\n        require(projectId < numProjects, \"Invalid project id\");\r\n        if(projects[projectId].investments[msg.sender] == 0){\r\n            projects[projectId].investors.push(msg.sender);\r\n        }\r\n        projects[projectId].total_fund += msg.value/1e12;\r\n        projects[projectId].investments[msg.sender] += msg.value/1e12;\r\n        \r\n    }\r\n\r\n    function startLeague() public{\r\n        require(msg.sender == moderator, \"only moderator can start the league\");\r\n        started=true;\r\n    }\r\n\r\n    function endLeague() public returns(uint[] memory){\r\n        require(msg.sender == organization, \"only organization can end the league\");\r\n        ended=true;\r\n        getPoints();\r\n      \t\r\n      \tfor(uint i=0; i<numProjects; i++){\r\n            total_points += points[i];\r\n        }\r\n\r\n        uint averagePoints = total_points / numProjects;\r\n      \r\n      \tfor(uint i=0;i<numProjects; i++) {\r\n            Knitts _knitts = Knitts(knittsAddress);\r\n            address _userId = _knitts.getUserContractAddress(projects[i].owner);\r\n            User _user = User(_userId);\r\n            _user.addProject(projects[i].title, projects[i].url, projects[i].image, projects[i].description, points[i] , averagePoints, address(this) );\r\n        } \r\n\r\n        return points;\r\n    }\r\n\r\n    function getPoints() private returns(uint[] memory){\r\n        require(ended = true, \"the game has not ended\");\r\n        uint [] memory empty_points;\r\n        points = empty_points;\r\n        // require(msg.sender == organization, \"only organization get the points\");\r\n        // write quadratic funding code here\r\n        for(uint i=0; i < numProjects; i++){\r\n            uint sum = 0;\r\n            for(uint j=0; j<projects[i].investors.length; j++){\r\n                address investor = projects[i].investors[j];\r\n                sum += sqrt(projects[i].investments[investor]);\r\n            }\r\n            uint point = sum * sum;\r\n            points.push(point);\r\n        }\r\n      \t\r\n        \r\n        return points;\r\n    }\r\n\r\n    function distribute() public {\r\n        require(msg.sender == organization, \"only organization can distribute prizes\");\r\n        uint total_balance = address(this).balance;\r\n        \r\n        for(uint i=0; i<numProjects; i++){\r\n            project storage p  =  projects[i];\r\n            \r\n            payable(p.owner).transfer( (3*points[i]*total_balance)/(10*total_points) );\r\n\r\n            for(uint j=0; j<p.investors.length; j++){\r\n                address investor = p.investors[j];\r\n                payable(investor).transfer( (6 * points[i] * total_balance * p.investments[investor]) / (10 * total_points * p.total_fund) );\r\n            }\r\n        }\r\n\r\n        payable(moderator).transfer(address(this).balance);\r\n\r\n    }\r\n\r\n    function getDetails() public view returns(\r\n        address,//moderator\r\n        uint,//entry fee\r\n        uint,//maxParticipants\r\n        bool, //started\r\n        bool, //ended\r\n        bool //distributed\r\n    ){\r\n        return (moderator, entryFee, maxParticipants, started, ended, distributed);\r\n    }\r\n\r\n    function submissionDetails(uint projectId) public view returns(\r\n        address, // project owner\r\n        bytes[20][] memory // description\r\n    )  {\r\n        return (projects[projectId].owner, projects[projectId].description);\r\n    }\r\n\r\n    function sqrt(uint num) public pure returns(uint){\r\n        uint start = 1;\r\n        uint end = num;\r\n        uint mid = start;\r\n        while(start < end){\r\n            mid = start + (end - start)/2;\r\n            if(mid * mid >= num){\r\n                end = mid;\r\n            }else{\r\n                start = mid+1;\r\n            }\r\n        }\r\n        return end;\r\n    }\r\n}\r\n\r\n\r\ncontract User {\r\n    string name;\r\n  \taddress id; //metamask address of corresponding user\r\n  \tuint numProjects=0;\r\n  \r\n  constructor( address _id, string memory _name ) {\r\n  \tname = _name;\r\n    id = _id;\r\n  }\r\n  \r\n  \r\n  struct project{\r\n      string title;\r\n      string url;\r\n      string image;\r\n        bytes[20][] description;\r\n        // uint total_fund;\r\n        uint point;\r\n        uint average_point;\r\n        address submittedOn;\r\n  }\r\n\t// mapping(uint => project) projects;\r\n\r\n    project[20] projects;\r\n  \r\n  function addProject(string memory title, string memory url, string memory image, bytes[20][] memory description, uint point, uint average_point, address submittedOn) public {\r\n    project storage p = projects[numProjects++];\r\n    p.title = title;\r\n    p.url = url;\r\n    p.image = image;\r\n    p.description = description;\r\n    p.point = point;\r\n    p.average_point = average_point;\r\n    p.submittedOn = submittedOn;\r\n  }\r\n  \r\n  function getDetails() public view returns (project[20] memory){\r\n    \treturn projects;\r\n  }\r\n  \r\n}\r\n\r\n\r\n\r\n\r\n\r\n\r\n\r\n\r\n\r\n\r\n\r\n\r\n\r\n\r\n\r\n\r\n",
  "sourcePath": "D:/blockchain/back-end/contracts/League.sol",
  "compiler": {
    "name": "solc",
    "version": "0.8.0+commit.c7dfd78e.Emscripten.clang"
  },
  "schemaVersion": "3.3.4",
  "updatedAt": "2021-10-01T15:01:14.020Z",
  "networkType": "ethereum",
  "devdoc": {
    "kind": "dev",
    "methods": {},
    "version": 1
  },
  "userdoc": {
    "kind": "user",
    "methods": {},
    "version": 1
  }
}