{
  "contractName": "Knitts",
  "abi": [
    {
      "inputs": [
        {
          "internalType": "uint256",
          "name": "",
          "type": "uint256"
        }
      ],
      "name": "Leagues",
      "outputs": [
        {
          "internalType": "address",
          "name": "",
          "type": "address"
        }
      ],
      "stateMutability": "view",
      "type": "function"
    },
    {
      "inputs": [
        {
          "internalType": "address",
          "name": "",
          "type": "address"
        }
      ],
      "name": "idToUser",
      "outputs": [
        {
          "internalType": "address",
          "name": "",
          "type": "address"
        }
      ],
      "stateMutability": "view",
      "type": "function"
    },
    {
      "inputs": [],
      "name": "numLeagues",
      "outputs": [
        {
          "internalType": "uint256",
          "name": "",
          "type": "uint256"
        }
      ],
      "stateMutability": "view",
      "type": "function"
    },
    {
      "inputs": [],
      "name": "organization",
      "outputs": [
        {
          "internalType": "address",
          "name": "",
          "type": "address"
        }
      ],
      "stateMutability": "view",
      "type": "function"
    },
    {
      "inputs": [
        {
          "internalType": "uint256",
          "name": "_entryFee",
          "type": "uint256"
        },
        {
          "internalType": "uint256",
          "name": "_numPlayers",
          "type": "uint256"
        },
        {
          "internalType": "uint256",
          "name": "_duration",
          "type": "uint256"
        }
      ],
      "name": "createLeague",
      "outputs": [
        {
          "internalType": "address[]",
          "name": "",
          "type": "address[]"
        }
      ],
      "stateMutability": "payable",
      "type": "function"
    },
    {
      "inputs": [
        {
          "internalType": "address",
          "name": "id",
          "type": "address"
        },
        {
          "internalType": "address",
          "name": "userContract",
          "type": "address"
        }
      ],
      "name": "register",
      "outputs": [],
      "stateMutability": "nonpayable",
      "type": "function"
    }
  ],
  "bytecode": "0x60806040527379e6234ff4e7db556f916febce9e52a68d0b88796000806101000a81548173ffffffffffffffffffffffffffffffffffffffff021916908373ffffffffffffffffffffffffffffffffffffffff160217905550600060025534801561006957600080fd5b50613719806100796000396000f3fe6080604052600436106200005c5760003560e01c806319fe7a83146200006157806323bd4d7a14620000a5578063aa67735414620000d5578063e075634b1462000103578063e623cc9f1462000133578063e9ff6f5c1462000177575b600080fd5b3480156200006e57600080fd5b506200008d6004803603810190620000879190620004d0565b620001ad565b6040516200009c919062000609565b60405180910390f35b348015620000b257600080fd5b50620000bd620001ed565b604051620000cc919062000609565b60405180910390f35b348015620000e257600080fd5b50620001016004803603810190620000fb91906200048f565b62000211565b005b3480156200011057600080fd5b506200011b62000293565b6040516200012a9190620006b7565b60405180910390f35b3480156200014057600080fd5b506200015f600480360381019062000159919062000463565b62000299565b6040516200016e919062000609565b60405180910390f35b6200019560048036038101906200018f9190620004fc565b620002cc565b604051620001a4919062000693565b60405180910390f35b60018181548110620001be57600080fd5b906000526020600020016000915054906101000a900473ffffffffffffffffffffffffffffffffffffffff1681565b60008054906101000a900473ffffffffffffffffffffffffffffffffffffffff1681565b80600360008473ffffffffffffffffffffffffffffffffffffffff1673ffffffffffffffffffffffffffffffffffffffff16815260200190815260200160002060006101000a81548173ffffffffffffffffffffffffffffffffffffffff021916908373ffffffffffffffffffffffffffffffffffffffff1602179055505050565b60025481565b60036020528060005260406000206000915054906101000a900473ffffffffffffffffffffffffffffffffffffffff1681565b60606000333486868630604051620002e49062000427565b620002f59695949392919062000626565b604051809103906000f08015801562000312573d6000803e3d6000fd5b5090506001600260008282546200032a91906200070d565b925050819055506001819080600181540180825580915050600190039060005260206000200160009091909190916101000a81548173ffffffffffffffffffffffffffffffffffffffff021916908373ffffffffffffffffffffffffffffffffffffffff16021790555060018054806020026020016040519081016040528092919081815260200182805480156200041857602002820191906000526020600020905b8160009054906101000a900473ffffffffffffffffffffffffffffffffffffffff1673ffffffffffffffffffffffffffffffffffffffff1681526020019060010190808311620003cd575b50505050509150509392505050565b612ed8806200080c83390190565b6000813590506200044681620007d7565b92915050565b6000813590506200045d81620007f1565b92915050565b6000602082840312156200047657600080fd5b6000620004868482850162000435565b91505092915050565b60008060408385031215620004a357600080fd5b6000620004b38582860162000435565b9250506020620004c68582860162000435565b9150509250929050565b600060208284031215620004e357600080fd5b6000620004f3848285016200044c565b91505092915050565b6000806000606084860312156200051257600080fd5b600062000522868287016200044c565b935050602062000535868287016200044c565b925050604062000548868287016200044c565b9150509250925092565b60006200056083836200056c565b60208301905092915050565b62000577816200076a565b82525050565b62000588816200076a565b82525050565b60006200059b82620006e4565b620005a78185620006fc565b9350620005b483620006d4565b8060005b83811015620005eb578151620005cf888262000552565b9750620005dc83620006ef565b925050600181019050620005b8565b5085935050505092915050565b62000603816200079e565b82525050565b60006020820190506200062060008301846200057d565b92915050565b600060c0820190506200063d60008301896200057d565b6200064c6020830188620005f8565b6200065b6040830187620005f8565b6200066a6060830186620005f8565b620006796080830185620005f8565b6200068860a08301846200057d565b979650505050505050565b60006020820190508181036000830152620006af81846200058e565b905092915050565b6000602082019050620006ce6000830184620005f8565b92915050565b6000819050602082019050919050565b600081519050919050565b6000602082019050919050565b600082825260208201905092915050565b60006200071a826200079e565b915062000727836200079e565b9250827fffffffffffffffffffffffffffffffffffffffffffffffffffffffffffffffff038211156200075f576200075e620007a8565b5b828201905092915050565b600062000777826200077e565b9050919050565b600073ffffffffffffffffffffffffffffffffffffffff82169050919050565b6000819050919050565b7f4e487b7100000000000000000000000000000000000000000000000000000000600052601160045260246000fd5b620007e2816200076a565b8114620007ee57600080fd5b50565b620007fc816200079e565b81146200080857600080fd5b5056fe608060405260006007556000600960006101000a81548160ff0219169083151502179055506000600960016101000a81548160ff0219169083151502179055506000600960026101000a81548160ff0219169083151502179055503480156200006757600080fd5b5060405162002ed838038062002ed883398181016040528101906200008d9190620001a5565b836002819055508260038190555085600460006101000a81548173ffffffffffffffffffffffffffffffffffffffff021916908373ffffffffffffffffffffffffffffffffffffffff16021790555081600581905550856000806101000a81548173ffffffffffffffffffffffffffffffffffffffff021916908373ffffffffffffffffffffffffffffffffffffffff16021790555080600160006101000a81548173ffffffffffffffffffffffffffffffffffffffff021916908373ffffffffffffffffffffffffffffffffffffffff16021790555084600681905550505050505050620002ad565b600081519050620001888162000279565b92915050565b6000815190506200019f8162000293565b92915050565b60008060008060008060c08789031215620001bf57600080fd5b6000620001cf89828a0162000177565b9650506020620001e289828a016200018e565b9550506040620001f589828a016200018e565b94505060606200020889828a016200018e565b93505060806200021b89828a016200018e565b92505060a06200022e89828a0162000177565b9150509295509295509295565b600062000248826200024f565b9050919050565b600073ffffffffffffffffffffffffffffffffffffffff82169050919050565b6000819050919050565b62000284816200023b565b81146200029057600080fd5b50565b6200029e816200026f565b8114620002aa57600080fd5b50565b612c1b80620002bd6000396000f3fe6080604052600436106101095760003560e01c806335c1d34911610095578063a19eb3c611610064578063a19eb3c614610357578063c3b7a80f14610382578063d0e30db014610399578063d235407b146103c4578063f84b903e1461040757610109565b806335c1d3491461028757806338743904146102c45780635a067baa146102ef5780639799b4e71461031a57610109565b80632185ce83116100dc5780632185ce83146101ba57806323bd4d7a146101ea57806324924bf71461021557806324fd7918146102405780632afcf4801461026b57610109565b8063072ea61c1461010e5780630fb5a6b41461013957806312fa6feb146101645780631f2698ab1461018f575b600080fd5b34801561011a57600080fd5b50610123610432565b60405161013091906126a5565b60405180910390f35b34801561014557600080fd5b5061014e610438565b60405161015b91906126a5565b60405180910390f35b34801561017057600080fd5b5061017961043e565b60405161018691906124b9565b60405180910390f35b34801561019b57600080fd5b506101a4610451565b6040516101b191906124b9565b60405180910390f35b6101d460048036038101906101cf9190611d2b565b610464565b6040516101e191906126a5565b60405180910390f35b3480156101f657600080fd5b506101ff6105d3565b60405161020c919061245a565b60405180910390f35b34801561022157600080fd5b5061022a6105f7565b60405161023791906126a5565b60405180910390f35b34801561024c57600080fd5b506102556105fd565b6040516102629190612497565b60405180910390f35b61028560048036038101906102809190611dee565b610a8e565b005b34801561029357600080fd5b506102ae60048036038101906102a99190611dee565b610bec565b6040516102bb919061245a565b60405180910390f35b3480156102d057600080fd5b506102d9610c2b565b6040516102e6919061245a565b60405180910390f35b3480156102fb57600080fd5b50610304610c51565b60405161031191906126a5565b60405180910390f35b34801561032657600080fd5b50610341600480360381019061033c9190611dee565b610c57565b60405161034e91906126a5565b60405180910390f35b34801561036357600080fd5b5061036c610c7b565b604051610379919061245a565b60405180910390f35b34801561038e57600080fd5b50610397610ca1565b005b3480156103a557600080fd5b506103ae610d4c565b6040516103bb91906126a5565b60405180910390f35b3480156103d057600080fd5b506103eb60048036038101906103e69190611dee565b610d52565b6040516103fe97969594939291906124d4565b60405180910390f35b34801561041357600080fd5b5061041c611081565b60405161042991906124b9565b60405180910390f35b60025481565b60055481565b600960019054906101000a900460ff1681565b600960009054906101000a900460ff1681565b60006002543410156104ab576040517f08c379a00000000000000000000000000000000000000000000000000000000081526004016104a29061266a565b60405180910390fd5b600354600754106104f1576040517f08c379a00000000000000000000000000000000000000000000000000000000081526004016104e89061260a565b60405180910390fd5b6000600b60006007600081548092919061050a90612aa1565b91905055815260200190815260200160002090508581600001908051906020019061053692919061182f565b508481600101908051906020019061054f92919061182f565b508381600201908051906020019061056892919061182f565b50338160030160006101000a81548173ffffffffffffffffffffffffffffffffffffffff021916908373ffffffffffffffffffffffffffffffffffffffff160217905550828160040190805190602001906105c49291906118b5565b50600754915050949350505050565b60008054906101000a900473ffffffffffffffffffffffffffffffffffffffff1681565b60035481565b606060008054906101000a900473ffffffffffffffffffffffffffffffffffffffff1673ffffffffffffffffffffffffffffffffffffffff163373ffffffffffffffffffffffffffffffffffffffff161461068d576040517f08c379a00000000000000000000000000000000000000000000000000000000081526004016106849061262a565b60405180910390fd5b6001600960016101000a81548160ff021916908315150217905550600460009054906101000a900473ffffffffffffffffffffffffffffffffffffffff1673ffffffffffffffffffffffffffffffffffffffff166108fc6006549081150290604051600060405180830381858888f19350505050158015610712573d6000803e3d6000fd5b5061071b611094565b506000600a80548060200260200160405190810160405280929190818152602001828054801561076a57602002820191906000526020600020905b815481526020019060010190808311610756575b505050505073__MyMathlib_____________________________630194db8e90916040518263ffffffff1660e01b81526004016107a79190612475565b60206040518083038186803b1580156107bf57600080fd5b505af41580156107d3573d6000803e3d6000fd5b505050506040513d601f19601f820116820180604052508101906107f79190611e17565b9050600060075482610809919061295a565b905060005b600754811015610a2c576000600160009054906101000a900473ffffffffffffffffffffffffffffffffffffffff16905060008173ffffffffffffffffffffffffffffffffffffffff1663e623cc9f600b600086815260200190815260200160002060030160009054906101000a900473ffffffffffffffffffffffffffffffffffffffff166040518263ffffffff1660e01b81526004016108b0919061245a565b60206040518083038186803b1580156108c857600080fd5b505afa1580156108dc573d6000803e3d6000fd5b505050506040513d601f19601f820116820180604052508101906109009190611d02565b905060008190508073ffffffffffffffffffffffffffffffffffffffff1663fbf7de84600b6000878152602001908152602001600020600001600b6000888152602001908152602001600020600101600b6000898152602001908152602001600020600201600b60008a8152602001908152602001600020600401600a8a815481106109b5577f4e487b7100000000000000000000000000000000000000000000000000000000600052603260045260246000fd5b90600052602060002001548b306040518863ffffffff1660e01b81526004016109e4979695949392919061255f565b600060405180830381600087803b1580156109fe57600080fd5b505af1158015610a12573d6000803e3d6000fd5b505050505050508080610a2490612aa1565b91505061080e565b50610a3682611337565b600a805480602002602001604051908101604052809291908181526020018280548015610a8257602002820191906000526020600020905b815481526020019060010190808311610a6e575b50505050509250505090565b6000600b6000838152602001908152602001600020905060008160050160003373ffffffffffffffffffffffffffffffffffffffff1673ffffffffffffffffffffffffffffffffffffffff168152602001908152602001600020541415610b555780600601339080600181540180825580915050600190039060005260206000200160009091909190916101000a81548173ffffffffffffffffffffffffffffffffffffffff021916908373ffffffffffffffffffffffffffffffffffffffff1602179055505b64e8d4a5100034610b66919061295a565b816007016000828254610b799190612904565b9250508190555064e8d4a5100034610b91919061295a565b8160050160003373ffffffffffffffffffffffffffffffffffffffff1673ffffffffffffffffffffffffffffffffffffffff1681526020019081526020016000206000828254610be19190612904565b925050819055505050565b60088181548110610bfc57600080fd5b906000526020600020016000915054906101000a900473ffffffffffffffffffffffffffffffffffffffff1681565b600460009054906101000a900473ffffffffffffffffffffffffffffffffffffffff1681565b60075481565b600a8181548110610c6757600080fd5b906000526020600020016000915090505481565b600160009054906101000a900473ffffffffffffffffffffffffffffffffffffffff1681565b60008054906101000a900473ffffffffffffffffffffffffffffffffffffffff1673ffffffffffffffffffffffffffffffffffffffff163373ffffffffffffffffffffffffffffffffffffffff1614610d2f576040517f08c379a0000000000000000000000000000000000000000000000000000000008152600401610d269061262a565b60405180910390fd5b6001600960006101000a81548160ff021916908315150217905550565b60065481565b6060806060600060606000806000600b60008a815260200190815260200160002090508060000181600101826002018360030160009054906101000a900473ffffffffffffffffffffffffffffffffffffffff168460040185600601805490508660070154868054610dc390612a6f565b80601f0160208091040260200160405190810160405280929190818152602001828054610def90612a6f565b8015610e3c5780601f10610e1157610100808354040283529160200191610e3c565b820191906000526020600020905b815481529060010190602001808311610e1f57829003601f168201915b50505050509650858054610e4f90612a6f565b80601f0160208091040260200160405190810160405280929190818152602001828054610e7b90612a6f565b8015610ec85780601f10610e9d57610100808354040283529160200191610ec8565b820191906000526020600020905b815481529060010190602001808311610eab57829003601f168201915b50505050509550848054610edb90612a6f565b80601f0160208091040260200160405190810160405280929190818152602001828054610f0790612a6f565b8015610f545780601f10610f2957610100808354040283529160200191610f54565b820191906000526020600020905b815481529060010190602001808311610f3757829003601f168201915b5050505050945082805480602002602001604051908101604052809291908181526020016000905b828210156110615783829060005260206000209060140201601480602002604051908101604052809291906000905b8282101561104e578382018054610fc190612a6f565b80601f0160208091040260200160405190810160405280929190818152602001828054610fed90612a6f565b801561103a5780601f1061100f5761010080835404028352916020019161103a565b820191906000526020600020905b81548152906001019060200180831161101d57829003601f168201915b505050505081526020019060010190610fab565b5050505081526020019060010190610f7c565b505050509250975097509750975097509750975050919395979092949650565b600960029054906101000a900460ff1681565b60606001600960016101000a81548160ff02191690831515021790556110ef576040517f08c379a00000000000000000000000000000000000000000000000000000000081526004016110e69061264a565b60405180910390fd5b606080600a9080519060200190611107929190611913565b5060005b6007548110156112df57600080600b6000848152602001908152602001600020905060005b816006018054905081101561129557600082600601828154811061117d577f4e487b7100000000000000000000000000000000000000000000000000000000600052603260045260246000fd5b9060005260206000200160009054906101000a900473ffffffffffffffffffffffffffffffffffffffff1690508260050160008273ffffffffffffffffffffffffffffffffffffffff1673ffffffffffffffffffffffffffffffffffffffff1681526020019081526020016000205473__MyMathlib_____________________________63677342ce90916040518263ffffffff1660e01b8152600401611224919061268a565b60206040518083038186803b15801561123c57600080fd5b505af4158015611250573d6000803e3d6000fd5b505050506040513d601f19601f820116820180604052508101906112749190611e17565b8461127f9190612904565b935050808061128d90612aa1565b915050611130565b50600a82836112a4919061298b565b9080600181540180825580915050600190039060005260206000200160009091909190915055505080806112d790612aa1565b91505061110b565b50600a80548060200260200160405190810160405280929190818152602001828054801561132c57602002820191906000526020600020905b815481526020019060010190808311611318575b505050505091505090565b60008054906101000a900473ffffffffffffffffffffffffffffffffffffffff1673ffffffffffffffffffffffffffffffffffffffff163373ffffffffffffffffffffffffffffffffffffffff16146113c5576040517f08c379a00000000000000000000000000000000000000000000000000000000081526004016113bc906125ea565b60405180910390fd5b600047905060005b6007548110156117c1576000600b600083815260200190815260200160002090508060030160009054906101000a900473ffffffffffffffffffffffffffffffffffffffff1673ffffffffffffffffffffffffffffffffffffffff166108fc85600a611439919061298b565b85600a8681548110611474577f4e487b7100000000000000000000000000000000000000000000000000000000600052603260045260246000fd5b9060005260206000200154600361148b919061298b565b611495919061298b565b61149f919061295a565b9081150290604051600060405180830381858888f193505050501580156114ca573d6000803e3d6000fd5b5060005b81600601805490508110156117ac57600082600601828154811061151b577f4e487b7100000000000000000000000000000000000000000000000000000000600052603260045260246000fd5b9060005260206000200160009054906101000a900473ffffffffffffffffffffffffffffffffffffffff1690506000600160009054906101000a900473ffffffffffffffffffffffffffffffffffffffff16905060008173ffffffffffffffffffffffffffffffffffffffff1663e623cc9f8660060186815481106115c9577f4e487b7100000000000000000000000000000000000000000000000000000000600052603260045260246000fd5b9060005260206000200160009054906101000a900473ffffffffffffffffffffffffffffffffffffffff166040518263ffffffff1660e01b8152600401611610919061245a565b60206040518083038186803b15801561162857600080fd5b505afa15801561163c573d6000803e3d6000fd5b505050506040513d601f19601f820116820180604052508101906116609190611d02565b905060008190508073ffffffffffffffffffffffffffffffffffffffff1663f765417687600701548b600a611695919061298b565b61169f919061298b565b8860050160008873ffffffffffffffffffffffffffffffffffffffff1673ffffffffffffffffffffffffffffffffffffffff168152602001908152602001600020548b600a8c8154811061171c577f4e487b7100000000000000000000000000000000000000000000000000000000600052603260045260246000fd5b90600052602060002001546006611733919061298b565b61173d919061298b565b611747919061298b565b611751919061295a565b6040518263ffffffff1660e01b81526004016000604051808303818588803b15801561177c57600080fd5b505af1158015611790573d6000803e3d6000fd5b50505050505050505080806117a490612aa1565b9150506114ce565b505080806117b990612aa1565b9150506113cd565b50600460009054906101000a900473ffffffffffffffffffffffffffffffffffffffff1673ffffffffffffffffffffffffffffffffffffffff166108fc479081150290604051600060405180830381858888f1935050505015801561182a573d6000803e3d6000fd5b505050565b82805461183b90612a6f565b90600052602060002090601f01602090048101928261185d57600085556118a4565b82601f1061187657805160ff19168380011785556118a4565b828001600101855582156118a4579182015b828111156118a3578251825591602001919060010190611888565b5b5090506118b19190611960565b5090565b828054828255906000526020600020906014028101928215611902579160200282015b82811115611901578251829060146118f192919061197d565b50916020019190601401906118d8565b5b50905061190f91906119d0565b5090565b82805482825590600052602060002090810192821561194f579160200282015b8281111561194e578251825591602001919060010190611933565b5b50905061195c9190611960565b5090565b5b80821115611979576000816000905550600101611961565b5090565b82601481019282156119bf579160200282015b828111156119be5782518290805190602001906119ae9291906119f4565b5091602001919060010190611990565b5b5090506119cc9190611a7a565b5090565b5b808211156119f057600081816119e79190611a9e565b506014016119d1565b5090565b828054611a0090612a6f565b90600052602060002090601f016020900481019282611a225760008555611a69565b82601f10611a3b57805160ff1916838001178555611a69565b82800160010185558215611a69579182015b82811115611a68578251825591602001919060010190611a4d565b5b509050611a769190611960565b5090565b5b80821115611a9a5760008181611a919190611ab1565b50600101611a7b565b5090565b508060140190611aae9190611a7a565b50565b508054611abd90612a6f565b6000825580601f10611acf5750611aee565b601f016020900490600052602060002090810190611aed9190611960565b5b50565b6000611b04611aff846126f1565b6126c0565b9050808382526020820190508260005b85811015611b445781358501611b2a8882611c5d565b845260208401935060208301925050600181019050611b14565b5050509392505050565b6000611b61611b5c8461271d565b6126c0565b9050808260005b85811015611b985781358501611b7e8882611c84565b845260208401935060208301925050600181019050611b68565b5050509392505050565b6000611bb5611bb084612743565b6126c0565b905082815260208101848484011115611bcd57600080fd5b611bd8848285612a2d565b509392505050565b6000611bf3611bee84612773565b6126c0565b905082815260208101848484011115611c0b57600080fd5b611c16848285612a2d565b509392505050565b600081519050611c2d81612bb7565b92915050565b600082601f830112611c4457600080fd5b8135611c54848260208601611af1565b91505092915050565b600082601f830112611c6e57600080fd5b6014611c7b848285611b4e565b91505092915050565b600082601f830112611c9557600080fd5b8135611ca5848260208601611ba2565b91505092915050565b600082601f830112611cbf57600080fd5b8135611ccf848260208601611be0565b91505092915050565b600081359050611ce781612bce565b92915050565b600081519050611cfc81612bce565b92915050565b600060208284031215611d1457600080fd5b6000611d2284828501611c1e565b91505092915050565b60008060008060808587031215611d4157600080fd5b600085013567ffffffffffffffff811115611d5b57600080fd5b611d6787828801611cae565b945050602085013567ffffffffffffffff811115611d8457600080fd5b611d9087828801611cae565b935050604085013567ffffffffffffffff811115611dad57600080fd5b611db987828801611cae565b925050606085013567ffffffffffffffff811115611dd657600080fd5b611de287828801611c33565b91505092959194509250565b600060208284031215611e0057600080fd5b6000611e0e84828501611cd8565b91505092915050565b600060208284031215611e2957600080fd5b6000611e3784828501611ced565b91505092915050565b6000611e4c8383611fb8565b905092915050565b6000611e60838361202d565b905092915050565b6000611e74838361216c565b905092915050565b6000611e8883836121a5565b905092915050565b6000611e9c838361241e565b60208301905092915050565b6000611eb4838361244b565b60208301905092915050565b611ec9816129e5565b82525050565b6000611eda82612816565b611ee481856128a4565b935083602082028501611ef6856127a3565b8060005b85811015611f325784840389528151611f138582611e40565b9450611f1e83612863565b925060208a01995050600181019050611efa565b50829750879550505050505092915050565b6000611f4f82612821565b611f5981856128a4565b935083602082028501611f6b856127b3565b8060005b85811015611fa657848403895281611f878582611e54565b9450611f9283612870565b925060208a01995050600181019050611f6f565b50829750879550505050505092915050565b6000611fc38261282c565b611fcd81856128b5565b935083602082028501611fdf856127c8565b8060005b8581101561201b5784840389528151611ffc8582611e68565b94506120078361287d565b925060208a01995050600181019050611fe3565b50829750879550505050505092915050565b600061203882612837565b61204281856128b5565b935083602082028501612054856127d2565b8060005b8581101561208f578484038952816120708582611e7c565b945061207b8361288a565b925060208a01995050600181019050612058565b50829750879550505050505092915050565b60006120ac82612842565b6120b681856128c0565b93506120c1836127dc565b8060005b838110156120f25781516120d98882611e90565b97506120e483612897565b9250506001810190506120c5565b5085935050505092915050565b600061210a82612842565b61211481856128d1565b935061211f836127dc565b8060005b838110156121505781516121378882611ea8565b975061214283612897565b925050600181019050612123565b5085935050505092915050565b612166816129f7565b82525050565b60006121778261284d565b61218181856128e2565b9350612191818560208601612a3c565b61219a81612ba6565b840191505092915050565b600081546121b281612a6f565b6121bc81866128e2565b945060018216600081146121d757600181146121e95761221c565b60ff198316865260208601935061221c565b6121f2856127ec565b60005b83811015612214578154818901526001820191506020810190506121f5565b808801955050505b50505092915050565b600061223082612858565b61223a81856128f3565b935061224a818560208601612a3c565b61225381612ba6565b840191505092915050565b6000815461226b81612a6f565b61227581866128f3565b9450600182166000811461229057600181146122a2576122d5565b60ff19831686526020860193506122d5565b6122ab85612801565b60005b838110156122cd578154818901526001820191506020810190506122ae565b808801955050505b50505092915050565b60006122eb6011836128f3565b91507f6f6e6c79206f7267616e697a6174696f6e0000000000000000000000000000006000830152602082019050919050565b600061232b6015836128f3565b91507f4d6178696d756d206c696d6974207265616368656400000000000000000000006000830152602082019050919050565b600061236b6008836128f3565b91507f6f6e6c79206f72670000000000000000000000000000000000000000000000006000830152602082019050919050565b60006123ab6016836128f3565b91507f7468652067616d6520686173206e6f7420656e646564000000000000000000006000830152602082019050919050565b60006123eb6016836128f3565b91507f496e73756666696369656e7420656e74727920666565000000000000000000006000830152602082019050919050565b61242781612a23565b82525050565b61243681612a23565b82525050565b61244581612a23565b82525050565b61245481612a23565b82525050565b600060208201905061246f6000830184611ec0565b92915050565b6000602082019050818103600083015261248f81846120ff565b905092915050565b600060208201905081810360008301526124b181846120a1565b905092915050565b60006020820190506124ce600083018461215d565b92915050565b600060e08201905081810360008301526124ee818a612225565b905081810360208301526125028189612225565b905081810360408301526125168188612225565b90506125256060830187611ec0565b81810360808301526125378186611ecf565b905061254660a083018561242d565b61255360c083018461242d565b98975050505050505050565b600060e0820190508181036000830152612579818a61225e565b9050818103602083015261258d818961225e565b905081810360408301526125a1818861225e565b905081810360608301526125b58187611f44565b90506125c4608083018661242d565b6125d160a083018561242d565b6125de60c0830184611ec0565b98975050505050505050565b60006020820190508181036000830152612603816122de565b9050919050565b600060208201905081810360008301526126238161231e565b9050919050565b600060208201905081810360008301526126438161235e565b9050919050565b600060208201905081810360008301526126638161239e565b9050919050565b60006020820190508181036000830152612683816123de565b9050919050565b600060208201905061269f600083018461243c565b92915050565b60006020820190506126ba600083018461242d565b92915050565b6000604051905081810181811067ffffffffffffffff821117156126e7576126e6612b77565b5b8060405250919050565b600067ffffffffffffffff82111561270c5761270b612b77565b5b602082029050602081019050919050565b600067ffffffffffffffff82111561273857612737612b77565b5b602082029050919050565b600067ffffffffffffffff82111561275e5761275d612b77565b5b601f19601f8301169050602081019050919050565b600067ffffffffffffffff82111561278e5761278d612b77565b5b601f19601f8301169050602081019050919050565b6000819050602082019050919050565b60008190508160005260206000209050919050565b6000819050919050565b6000819050919050565b6000819050602082019050919050565b60008190508160005260206000209050919050565b60008190508160005260206000209050919050565b600081519050919050565b600081549050919050565b600060149050919050565b600060149050919050565b600081519050919050565b600081519050919050565b600081519050919050565b6000602082019050919050565b6000601482019050919050565b6000602082019050919050565b6000600182019050919050565b6000602082019050919050565b600082825260208201905092915050565b600081905092915050565b600082825260208201905092915050565b600082825260208201905092915050565b600082825260208201905092915050565b600082825260208201905092915050565b600061290f82612a23565b915061291a83612a23565b9250827fffffffffffffffffffffffffffffffffffffffffffffffffffffffffffffffff0382111561294f5761294e612aea565b5b828201905092915050565b600061296582612a23565b915061297083612a23565b9250826129805761297f612b19565b5b828204905092915050565b600061299682612a23565b91506129a183612a23565b9250817fffffffffffffffffffffffffffffffffffffffffffffffffffffffffffffffff04831182151516156129da576129d9612aea565b5b828202905092915050565b60006129f082612a03565b9050919050565b60008115159050919050565b600073ffffffffffffffffffffffffffffffffffffffff82169050919050565b6000819050919050565b82818337600083830152505050565b60005b83811015612a5a578082015181840152602081019050612a3f565b83811115612a69576000848401525b50505050565b60006002820490506001821680612a8757607f821691505b60208210811415612a9b57612a9a612b48565b5b50919050565b6000612aac82612a23565b91507fffffffffffffffffffffffffffffffffffffffffffffffffffffffffffffffff821415612adf57612ade612aea565b5b600182019050919050565b7f4e487b7100000000000000000000000000000000000000000000000000000000600052601160045260246000fd5b7f4e487b7100000000000000000000000000000000000000000000000000000000600052601260045260246000fd5b7f4e487b7100000000000000000000000000000000000000000000000000000000600052602260045260246000fd5b7f4e487b7100000000000000000000000000000000000000000000000000000000600052604160045260246000fd5b6000601f19601f8301169050919050565b612bc0816129e5565b8114612bcb57600080fd5b50565b612bd781612a23565b8114612be257600080fd5b5056fea26469706673582212200c2f5d5d0619dced74c308242612c47791c97cebbf3f82f535ec4baaf41ceeb864736f6c63430008000033a2646970667358221220296227c50ab89a133fa500056764c6d80b13b8cad386b02c6c7b3575cc981c0464736f6c63430008000033",
  "immutableReferences": {},
  "source": "// SPDX-License-Identifier: MIT\r\npragma solidity >=0.8.0;\r\n\r\nimport \"@openzeppelin/contracts/token/ERC721/extensions/ERC721URIStorage.sol\"; \r\nimport \"@openzeppelin/contracts/access/Ownable.sol\";\r\nimport \"@openzeppelin/contracts/utils/Counters.sol\";\r\n\r\n\r\nlibrary MyMathlib{\r\n    function sqrt(uint num) public pure returns(uint){\r\n        uint start = 1;\r\n        uint end = num;\r\n        uint mid = start;\r\n        while(start < end){\r\n            mid = start + (end - start)/2;\r\n            if(mid * mid >= num){\r\n                end = mid;\r\n            }else{\r\n                start = mid+1;\r\n            }\r\n        }\r\n        return end;\r\n    }\r\n\r\n    function sum(uint[] memory arr) public pure returns (uint){\r\n        uint buf = 0;\r\n        for(uint i=0; i<arr.length; i++){\r\n            buf += arr[i];\r\n        }\r\n        return buf;\r\n    }\r\n}\r\n\r\n\r\ncontract Knitts{\r\n    address public organization = 0x79e6234Ff4E7DB556F916FeBcE9e52a68D0B8879;\r\n    address[] public Leagues;\r\n    uint public numLeagues=0;\r\n  \tmapping(address => address) public idToUser; \r\n\r\n    function createLeague(uint _entryFee, uint _numPlayers, uint _duration) public payable returns (address[] memory){\r\n        League newLeague = new League(msg.sender, msg.value, _entryFee, _numPlayers, _duration, address(this));\r\n        numLeagues += 1;\r\n        Leagues.push(address(newLeague));\r\n        return Leagues;\r\n    }\r\n\r\n\r\n    function register(address id, address userContract) public {\r\n        idToUser[id] = userContract;\r\n    }\r\n}\r\n\r\ncontract League{\r\n    using  MyMathlib for *;\r\n\r\n    //constant variables\r\n    address public organization;\r\n    address public knittsAddress;\r\n\r\n    //parameters\r\n    uint public entryFee;\r\n    uint public maxParticipants;\r\n    address public moderator;\r\n    uint public duration;\r\n    uint public deposit;\r\n\r\n    //contract variables\r\n    uint public numProjects=0;\r\n    address [] public participants;\r\n    bool public started=false;\r\n    bool public ended=false;\r\n    bool public distributed=false;\r\n    uint [] public points;\r\n    \r\n\r\n    struct project{\r\n\r\n        //parameters\r\n        string title;\r\n        string url;\r\n        string image;\r\n        address owner;\r\n        bytes[20][] description;\r\n\r\n        //variables\r\n        mapping(address => uint)investments;\r\n        address[] investors;\r\n        uint total_fund;\r\n    }\r\n\t\t\r\n    mapping(uint => project) projects;\r\n\r\n    constructor(address _moderator, uint _deposit, uint _entryFee, uint _maxParticipants, uint _duration, address _knittsAddress){\r\n        entryFee = _entryFee;\r\n        maxParticipants = _maxParticipants;\r\n        moderator = _moderator;\r\n        duration = _duration;\r\n        organization = _moderator; // for local testing\r\n        knittsAddress = _knittsAddress;\r\n        deposit = _deposit;\r\n    }\r\n\r\n    function submitIdea(string memory title, string memory url, string memory image, bytes[20][] memory description) external payable returns(uint){\r\n        require(msg.value >= entryFee, \"Insufficient entry fee\");\r\n        require(numProjects < maxParticipants, \"Maximum limit reached\");\r\n        project storage p = projects[numProjects++];\r\n        p.title = title;\r\n        p.url = url;\r\n        p.image = image;\r\n        p.owner = msg.sender;\r\n        p.description = description;\r\n        return numProjects;\r\n    }\r\n\r\n    function invest(uint projectId) external payable{\r\n        project storage p = projects[projectId];\r\n        if(p.investments[msg.sender] == 0){\r\n            p.investors.push(msg.sender);\r\n        }\r\n        p.total_fund += msg.value/1e12;\r\n        p.investments[msg.sender] += msg.value/1e12;\r\n        \r\n    }\r\n\r\n    function startLeague() external {\r\n        require(msg.sender == organization, \"only org\");\r\n        started=true;\r\n    }\r\n\r\n    function endLeague() external returns(uint[] memory){\r\n        require(msg.sender == organization, \"only org\");\r\n        ended=true;\r\n        payable(moderator).transfer(deposit);\r\n        getPoints();\r\n      \tuint total_points = points.sum();\r\n        uint averagePoints = total_points / numProjects;\r\n      \r\n      \tfor(uint i=0;i<numProjects; i++) {\r\n            Knitts _knitts = Knitts(knittsAddress);\r\n            address _userId = _knitts.idToUser(projects[i].owner);\r\n            User _user = User(_userId);\r\n            _user.addProject(projects[i].title, projects[i].url, projects[i].image, projects[i].description, points[i] , averagePoints, address(this) );\r\n        } \r\n        distribute(total_points);\r\n        return points;\r\n    }\r\n\r\n\r\n    function submissionDetails(uint projectId) external view returns(\r\n        string memory,\r\n        string memory,\r\n        string memory,\r\n        address, \r\n        bytes[20][] memory,\r\n        uint,\r\n        uint\r\n    )  {\r\n        project storage p  = projects[projectId];\r\n        return (p.title, p.url, p.image, p.owner, p.description,p.investors.length,p.total_fund);\r\n    }\r\n\r\n\r\n    function getPoints() internal returns(uint[] memory){\r\n        require(ended = true, \"the game has not ended\");\r\n        uint [] memory empty_points;\r\n        points = empty_points;\r\n        for(uint i=0; i < numProjects; i++){\r\n            uint buf = 0;\r\n            project storage p = projects[i];\r\n            for(uint j=0; j< p.investors.length; j++){\r\n                address inv = p.investors[j];\r\n                buf += (p.investments[inv]).sqrt();\r\n            }\r\n            points.push(buf * buf);\r\n        }\r\n        return points;\r\n    }\r\n\r\n    function distribute(uint total_points) internal {\r\n        require(msg.sender == organization, \"only organization\");\r\n        uint total_balance = address(this).balance;\r\n        \r\n        for(uint i=0; i<numProjects; i++){\r\n            project storage p  =  projects[i];\r\n            \r\n            payable(p.owner).transfer( (3*points[i]*total_balance)/(10*total_points) );\r\n\r\n            for(uint j=0; j<p.investors.length; j++){\r\n                address investor = p.investors[j];\r\n                Knitts _knitts = Knitts(knittsAddress);\r\n                address _userId = _knitts.idToUser(p.investors[j]);\r\n                User _user = User(_userId);\r\n                _user.split{value:(6 * points[i] * total_balance * p.investments[investor]) / (10 * total_points * p.total_fund)}();\r\n            }\r\n        }\r\n\r\n        payable(moderator).transfer(address(this).balance);\r\n\r\n    }\r\n\r\n    \r\n}\r\n\r\n\r\ncontract User {\r\n\r\n    //parameters\r\n    string public name;\r\n  \taddress public id; //metamask address of corresponding user\r\n\r\n    //contract variables\r\n  \tuint public numProjects=0;\r\n    address[] public NFTs_created;\r\n    uint public pending_nfts = 0;\r\n\r\n\r\n    constructor( address _id, string memory _name ) {\r\n        name = _name;\r\n        id = _id;\r\n    }\r\n\r\n    struct project{\r\n        string title;\r\n        string url;\r\n        string image;\r\n        bytes[20][] description;\r\n        uint point;\r\n        uint average_point;\r\n        address submittedOn;\r\n    }\r\n\r\n    project[20] public projects;\r\n    \r\n    function addProject(string memory _title, string memory _url, string memory _image, bytes[20][] memory _description, uint _point, uint _average_point, address _submittedOn) external {\r\n        projects[numProjects++] = project({title:_title, url:_url, image:_image, description:_description, point:_point, average_point:_average_point, submittedOn:_submittedOn});\r\n    }\r\n    \r\n\r\n    function createNFT(uint _bronze, uint price) external returns(address [] memory){\r\n        require(_bronze <= 10, \"You can create only 10 bronzes\");\r\n        require(pending_nfts == 0, \"There are pending nfts still\");\r\n        require(msg.sender == id, \"wrong user account\");\r\n\r\n        for(uint i=0; i<_bronze; i++){\r\n            NFT new_nft = new NFT(id, \"Bronze\", \"B\", id, 'https://s3.envato.com/files/235568921/preview.jpg', 1, price);\r\n            NFTs_created.push(address(new_nft));\r\n        }\r\n\r\n        pending_nfts = _bronze;\r\n        return NFTs_created;\r\n    }\r\n\r\n    function split() external payable {\r\n        uint value = (msg.value * 95) / 100;\r\n        if(pending_nfts > 0){\r\n            for(uint i=0; i<NFTs_created.length; i++){\r\n                NFT nft = NFT(NFTs_created[i]);\r\n                payable(nft.ownerOf(1)).transfer((value)/10);\r\n            }\r\n            scratchNFTs();\r\n        }\r\n        \r\n        payable(id).transfer(address(this).balance);\r\n    }\r\n\r\n    function scratchNFTs() internal returns(uint){\r\n        uint rem = 0;\r\n        for(uint i=0; i<NFTs_created.length; i++){\r\n            NFT new_nft =  NFT(NFTs_created[i]);\r\n            rem = new_nft.scratchCard();\r\n        }\r\n        if(rem == 0){\r\n            pending_nfts = 0;\r\n            address [] memory temp;\r\n            NFTs_created = temp;\r\n        }\r\n        return rem;\r\n    }\r\n  \r\n}\r\n\r\ncontract NFT is ERC721URIStorage, Ownable{\r\n    using Counters for Counters.Counter;\r\n    Counters.Counter private _tokenIds;\r\n    address public nft_creator;\r\n    uint public leaguesMore;\r\n    uint public price;\r\n    uint public newItemId;\r\n    constructor(address _creator, string memory _name, string memory _symbol, address _player, string memory _tokenURI, uint _leaguesMore, uint _price) ERC721(_name, _symbol){\r\n        nft_creator = _creator;\r\n        leaguesMore = _leaguesMore;\r\n        _tokenIds.increment();\r\n        newItemId = _tokenIds.current();\r\n        _mint(_player, newItemId);\r\n        _setTokenURI(newItemId, _tokenURI);\r\n        _approve(address(this), newItemId);\r\n        price = _price;\r\n    }\r\n\r\n    function scratchCard() public returns (uint){\r\n        require(leaguesMore > 0, \"expired\");\r\n        leaguesMore -= 1;\r\n        if(leaguesMore == 0){\r\n            _burn(1);\r\n        }\r\n        return leaguesMore;\r\n    }\r\n\r\n    function updatePrice(uint _price) external onlyOwner {\r\n        price = _price;\r\n    }\r\n\r\n    function buy() external payable {\r\n        require(msg.value >= price, \"costs more\");\r\n        address old_owner = ownerOf(newItemId);\r\n        _transfer(old_owner, address(this), newItemId);\r\n        _approve(msg.sender, newItemId);\r\n        payable(old_owner).transfer(address(this).balance);\r\n    } \r\n\r\n}\r\n\r\n",
  "sourcePath": "D:/blockchain/back-end/contracts/League.sol",
  "compiler": {
    "name": "solc",
    "version": "0.8.0+commit.c7dfd78e.Emscripten.clang"
  },
  "schemaVersion": "3.3.4",
  "updatedAt": "2021-10-09T17:44:43.827Z",
  "devdoc": {
    "kind": "dev",
    "methods": {},
    "version": 1
  },
  "userdoc": {
    "kind": "user",
    "methods": {},
    "version": 1
  }
}