{
  "contractName": "User",
  "abi": [
    {
      "inputs": [
        {
          "internalType": "address",
          "name": "_id",
          "type": "address"
        },
        {
          "internalType": "string",
          "name": "_name",
          "type": "string"
        }
      ],
      "stateMutability": "nonpayable",
      "type": "constructor"
    },
    {
      "inputs": [
        {
          "internalType": "string",
          "name": "title",
          "type": "string"
        },
        {
          "internalType": "string",
          "name": "url",
          "type": "string"
        },
        {
          "internalType": "bytes[20][]",
          "name": "description",
          "type": "bytes[20][]"
        },
        {
          "internalType": "uint256",
          "name": "point",
          "type": "uint256"
        },
        {
          "internalType": "uint256",
          "name": "average_point",
          "type": "uint256"
        },
        {
          "internalType": "address",
          "name": "submittedOn",
          "type": "address"
        }
      ],
      "name": "addProject",
      "outputs": [],
      "stateMutability": "nonpayable",
      "type": "function"
    },
    {
      "inputs": [],
      "name": "getDetails",
      "outputs": [
        {
          "components": [
            {
              "internalType": "string",
              "name": "title",
              "type": "string"
            },
            {
              "internalType": "string",
              "name": "url",
              "type": "string"
            },
            {
              "internalType": "bytes[20][]",
              "name": "description",
              "type": "bytes[20][]"
            },
            {
              "internalType": "uint256",
              "name": "point",
              "type": "uint256"
            },
            {
              "internalType": "uint256",
              "name": "average_point",
              "type": "uint256"
            },
            {
              "internalType": "address",
              "name": "submittedOn",
              "type": "address"
            }
          ],
          "internalType": "struct User.project[20]",
          "name": "",
          "type": "tuple[20]"
        }
      ],
      "stateMutability": "view",
      "type": "function",
      "constant": true
    }
  ],
  "bytecode": "0x608060405260006002553480156200001657600080fd5b50604051620014713803806200147183398181016040528101906200003c9190620001d7565b8060009080519060200190620000549291906200009e565b5081600160006101000a81548173ffffffffffffffffffffffffffffffffffffffff021916908373ffffffffffffffffffffffffffffffffffffffff1602179055505050620003b0565b828054620000ac9062000302565b90600052602060002090601f016020900481019282620000d057600085556200011c565b82601f10620000eb57805160ff19168380011785556200011c565b828001600101855582156200011c579182015b828111156200011b578251825591602001919060010190620000fe565b5b5090506200012b91906200012f565b5090565b5b808211156200014a57600081600090555060010162000130565b5090565b6000620001656200015f8462000265565b62000231565b9050828152602081018484840111156200017e57600080fd5b6200018b848285620002cc565b509392505050565b600081519050620001a48162000396565b92915050565b600082601f830112620001bc57600080fd5b8151620001ce8482602086016200014e565b91505092915050565b60008060408385031215620001eb57600080fd5b6000620001fb8582860162000193565b925050602083015167ffffffffffffffff8111156200021957600080fd5b6200022785828601620001aa565b9150509250929050565b6000604051905081810181811067ffffffffffffffff821117156200025b576200025a62000367565b5b8060405250919050565b600067ffffffffffffffff82111562000283576200028262000367565b5b601f19601f8301169050602081019050919050565b6000620002a582620002ac565b9050919050565b600073ffffffffffffffffffffffffffffffffffffffff82169050919050565b60005b83811015620002ec578082015181840152602081019050620002cf565b83811115620002fc576000848401525b50505050565b600060028204905060018216806200031b57607f821691505b6020821081141562000332576200033162000338565b5b50919050565b7f4e487b7100000000000000000000000000000000000000000000000000000000600052602260045260246000fd5b7f4e487b7100000000000000000000000000000000000000000000000000000000600052604160045260246000fd5b620003a18162000298565b8114620003ad57600080fd5b50565b6110b180620003c06000396000f3fe608060405234801561001057600080fd5b50600436106100365760003560e01c806350038c9c1461003b578063fbbf93a014610057575b600080fd5b61005560048036038101906100509190610953565b610075565b005b61005f610176565b60405161006c9190610ce6565b60405180910390f35b600060036002600081548092919061008c90610f66565b91905055601481106100c7577f4e487b7100000000000000000000000000000000000000000000000000000000600052603260045260246000fd5b600602019050868160000190805190602001906100e5929190610468565b50858160010190805190602001906100fe929190610468565b50848160020190805190602001906101179291906104ee565b50838160030181905550828160040181905550818160050160006101000a81548173ffffffffffffffffffffffffffffffffffffffff021916908373ffffffffffffffffffffffffffffffffffffffff16021790555050505050505050565b61017e61054c565b6003601480602002604051908101604052809291906000905b8282101561045f578382600602016040518060c00160405290816000820180546101c090610f34565b80601f01602080910402602001604051908101604052809291908181526020018280546101ec90610f34565b80156102395780601f1061020e57610100808354040283529160200191610239565b820191906000526020600020905b81548152906001019060200180831161021c57829003601f168201915b5050505050815260200160018201805461025290610f34565b80601f016020809104026020016040519081016040528092919081815260200182805461027e90610f34565b80156102cb5780601f106102a0576101008083540402835291602001916102cb565b820191906000526020600020905b8154815290600101906020018083116102ae57829003601f168201915b5050505050815260200160028201805480602002602001604051908101604052809291908181526020016000905b828210156103de5783829060005260206000209060140201601480602002604051908101604052809291906000905b828210156103cb57838201805461033e90610f34565b80601f016020809104026020016040519081016040528092919081815260200182805461036a90610f34565b80156103b75780601f1061038c576101008083540402835291602001916103b7565b820191906000526020600020905b81548152906001019060200180831161039a57829003601f168201915b505050505081526020019060010190610328565b50505050815260200190600101906102f9565b50505050815260200160038201548152602001600482015481526020016005820160009054906101000a900473ffffffffffffffffffffffffffffffffffffffff1673ffffffffffffffffffffffffffffffffffffffff1673ffffffffffffffffffffffffffffffffffffffff168152505081526020019060010190610197565b50505050905090565b82805461047490610f34565b90600052602060002090601f01602090048101928261049657600085556104dd565b82601f106104af57805160ff19168380011785556104dd565b828001600101855582156104dd579182015b828111156104dc5782518255916020019190600101906104c1565b5b5090506104ea919061057a565b5090565b82805482825590600052602060002090601402810192821561053b579160200282015b8281111561053a5782518290601461052a929190610597565b5091602001919060140190610511565b5b50905061054891906105ea565b5090565b6040518061028001604052806014905b61056461060e565b81526020019060019003908161055c5790505090565b5b8082111561059357600081600090555060010161057b565b5090565b82601481019282156105d9579160200282015b828111156105d85782518290805190602001906105c892919061065a565b50916020019190600101906105aa565b5b5090506105e691906106e0565b5090565b5b8082111561060a57600081816106019190610704565b506014016105eb565b5090565b6040518060c001604052806060815260200160608152602001606081526020016000815260200160008152602001600073ffffffffffffffffffffffffffffffffffffffff1681525090565b82805461066690610f34565b90600052602060002090601f01602090048101928261068857600085556106cf565b82601f106106a157805160ff19168380011785556106cf565b828001600101855582156106cf579182015b828111156106ce5782518255916020019190600101906106b3565b5b5090506106dc919061057a565b5090565b5b8082111561070057600081816106f79190610717565b506001016106e1565b5090565b50806014019061071491906106e0565b50565b50805461072390610f34565b6000825580601f106107355750610754565b601f016020900490600052602060002090810190610753919061057a565b5b50565b600061076a61076584610d39565b610d08565b9050808382526020820190508260005b858110156107aa578135850161079088826108c3565b84526020840193506020830192505060018101905061077a565b5050509392505050565b60006107c76107c284610d65565b610d08565b9050808260005b858110156107fe57813585016107e488826108ea565b8452602084019350602083019250506001810190506107ce565b5050509392505050565b600061081b61081684610d8b565b610d08565b90508281526020810184848401111561083357600080fd5b61083e848285610ef2565b509392505050565b600061085961085484610dbb565b610d08565b90508281526020810184848401111561087157600080fd5b61087c848285610ef2565b509392505050565b6000813590506108938161104d565b92915050565b600082601f8301126108aa57600080fd5b81356108ba848260208601610757565b91505092915050565b600082601f8301126108d457600080fd5b60146108e18482856107b4565b91505092915050565b600082601f8301126108fb57600080fd5b813561090b848260208601610808565b91505092915050565b600082601f83011261092557600080fd5b8135610935848260208601610846565b91505092915050565b60008135905061094d81611064565b92915050565b60008060008060008060c0878903121561096c57600080fd5b600087013567ffffffffffffffff81111561098657600080fd5b61099289828a01610914565b965050602087013567ffffffffffffffff8111156109af57600080fd5b6109bb89828a01610914565b955050604087013567ffffffffffffffff8111156109d857600080fd5b6109e489828a01610899565b94505060606109f589828a0161093e565b9350506080610a0689828a0161093e565b92505060a0610a1789828a01610884565b9150509295509295509295565b6000610a308383610ae4565b905092915050565b6000610a448383610bce565b905092915050565b6000610a588383610c40565b905092915050565b610a6981610eb6565b82525050565b6000610a7a82610e0f565b610a848185610e6d565b935083602082028501610a9685610deb565b8060005b85811015610ad25784840389528151610ab38582610a24565b9450610abe83610e46565b925060208a01995050600181019050610a9a565b50829750879550505050505092915050565b6000610aef82610e1a565b610af98185610e7e565b935083602082028501610b0b85610dfb565b8060005b85811015610b475784840389528151610b288582610a38565b9450610b3383610e53565b925060208a01995050600181019050610b0f565b50829750879550505050505092915050565b6000610b6482610e25565b610b6e8185610e89565b935083602082028501610b8085610e05565b8060005b85811015610bbc5784840389528151610b9d8582610a4c565b9450610ba883610e60565b925060208a01995050600181019050610b84565b50829750879550505050505092915050565b6000610bd982610e30565b610be38185610e94565b9350610bf3818560208601610f01565b610bfc8161103c565b840191505092915050565b6000610c1282610e3b565b610c1c8185610ea5565b9350610c2c818560208601610f01565b610c358161103c565b840191505092915050565b600060c0830160008301518482036000860152610c5d8282610c07565b91505060208301518482036020860152610c778282610c07565b91505060408301518482036040860152610c918282610a6f565b9150506060830151610ca66060860182610cd7565b506080830151610cb96080860182610cd7565b5060a0830151610ccc60a0860182610a60565b508091505092915050565b610ce081610ee8565b82525050565b60006020820190508181036000830152610d008184610b59565b905092915050565b6000604051905081810181811067ffffffffffffffff82111715610d2f57610d2e61100d565b5b8060405250919050565b600067ffffffffffffffff821115610d5457610d5361100d565b5b602082029050602081019050919050565b600067ffffffffffffffff821115610d8057610d7f61100d565b5b602082029050919050565b600067ffffffffffffffff821115610da657610da561100d565b5b601f19601f8301169050602081019050919050565b600067ffffffffffffffff821115610dd657610dd561100d565b5b601f19601f8301169050602081019050919050565b6000819050602082019050919050565b6000819050919050565b6000819050919050565b600081519050919050565b600060149050919050565b600060149050919050565b600081519050919050565b600081519050919050565b6000602082019050919050565b6000602082019050919050565b6000602082019050919050565b600082825260208201905092915050565b600081905092915050565b600081905092915050565b600082825260208201905092915050565b600082825260208201905092915050565b6000610ec182610ec8565b9050919050565b600073ffffffffffffffffffffffffffffffffffffffff82169050919050565b6000819050919050565b82818337600083830152505050565b60005b83811015610f1f578082015181840152602081019050610f04565b83811115610f2e576000848401525b50505050565b60006002820490506001821680610f4c57607f821691505b60208210811415610f6057610f5f610fde565b5b50919050565b6000610f7182610ee8565b91507fffffffffffffffffffffffffffffffffffffffffffffffffffffffffffffffff821415610fa457610fa3610faf565b5b600182019050919050565b7f4e487b7100000000000000000000000000000000000000000000000000000000600052601160045260246000fd5b7f4e487b7100000000000000000000000000000000000000000000000000000000600052602260045260246000fd5b7f4e487b7100000000000000000000000000000000000000000000000000000000600052604160045260246000fd5b6000601f19601f8301169050919050565b61105681610eb6565b811461106157600080fd5b50565b61106d81610ee8565b811461107857600080fd5b5056fea264697066735822122067f555500e98aa729a888c7cb91c24f3b33f43dac396fdb9afa000c52652873064736f6c63430008000033",
  "immutableReferences": {},
  "source": "// SPDX-License-Identifier: MIT\npragma solidity >=0.8.0;\n\ncontract Knitts{\n    //organization address here\n    address organization = 0x79e6234Ff4E7DB556F916FeBcE9e52a68D0B8879;\n    address[] moderators;//change this to mapping mapping(address=>bool)\n    mapping(address=>bool) valid;\n    mapping(address => uint) deposits;\n    address[] Leagues;\n  \taddress[] Users;\n    uint maxDescLength = 1000;\n  \tmapping(address => address) idToUser; \n  \tmapping(address => bool) userExists;\n  \t\n    function addModerator() public payable{\n        require(msg.value > 0, \"You should deposit some amount\");\n        moderators.push(msg.sender);\n        deposits[msg.sender] = msg.value;\n        valid[msg.sender]=true;\n    }\n\n    function depositMore() public payable{\n        require(msg.value > 0, \"You need to deposit some amount\");\n        deposits[msg.sender] += msg.value;\n    }\n\n    function createLeague(uint _entryFee, uint _numPlayers, uint _duration) public returns(address[] memory){\n        require(_entryFee * _numPlayers <= deposits[msg.sender], \"Insufficient deposit\");\n        League newLeague = new League(msg.sender, _entryFee, _numPlayers, _duration, address(this));\n        Leagues.push(address(newLeague));\n        return Leagues;\n    }\n\n    function getBalance(address _moderator) public view returns (uint){\n        return deposits[_moderator];\n    }\n\n    function getDetails() public view returns (address [] memory, address [] memory){\n        return (moderators, Leagues);\n    }\n\n    function removeModerator(address _moderator) public {\n        valid[_moderator] = false;\n    }\n  \n  \tfunction register(string memory _name) public returns (address) {\n        User newUser = new User(msg.sender, _name);\n        userExists[msg.sender] = true;\n        idToUser[msg.sender] = address(newUser);\n        return address(newUser);\n    }\n  \n  \tfunction getUserContractAddress(address _id) public view returns(address) {\n        require(userExists[_id] == true,\"The user should exist\");\n        return idToUser[_id];\n    }\n}\n\ncontract League{\n    \n    address organization;\n    uint entryFee;\n    uint maxParticipants;\n    uint numProjects;\n    address [] participants;\n    address moderator;\n    uint duration;\n    bool started;\n    bool ended;\n    bool distributed;\n  \tuint total_points=0;\n    uint [] points;\n    address knittsAddress;\n\n    struct project{\n        string title;\n        string url;\n        address owner;\n        bytes[20][] description;\n        mapping(address => uint)investments;\n        address[] investors;\n        uint total_fund;\n    }\n\t\t\n    mapping(uint => project) projects;\n\n    constructor(address _moderator, uint _entryFee, uint _maxParticipants, uint _duration, address _knittsAddress){\n        entryFee = _entryFee;\n        maxParticipants = _maxParticipants;\n        moderator = _moderator;\n        duration = _duration;\n        numProjects = 0;\n        started=false;\n        ended=false;\n        distributed=false;\n        //organization = 0x79e6234Ff4E7DB556F916FeBcE9e52a68D0B8879; //for public net\n        organization = _moderator; // for local testing\n        knittsAddress = _knittsAddress;\n    }\n\n    function submitIdea(string memory title, string memory url, bytes[20][] memory description) public payable returns(uint){\n        require(msg.value >= entryFee, \"Insufficient entry fee\");\n        require(numProjects < maxParticipants, \"Maximum limit reached\");\n        project storage p = projects[numProjects++];\n        p.title = title;\n        p.url = url;\n        p.owner = msg.sender;\n        p.description = description;\n        return numProjects;\n    }\n\n    function invest(uint projectId) public payable{\n        require(projectId < numProjects, \"Invalid project id\");\n        if(projects[projectId].investments[msg.sender] == 0){\n            projects[projectId].investors.push(msg.sender);\n        }\n        projects[projectId].total_fund += msg.value/1e12;\n        projects[projectId].investments[msg.sender] += msg.value/1e12;\n        \n    }\n\n    function startLeague() public{\n        require(msg.sender == moderator, \"only moderator can start the league\");\n        started=true;\n    }\n\n    function endLeague() public returns(uint[] memory){\n        require(msg.sender == organization, \"only organization can end the league\");\n        ended=true;\n        getPoints();\n      \t\n      \tfor(uint i=0; i<numProjects; i++){\n            total_points += points[i];\n        }\n\n        uint averagePoints = total_points / numProjects;\n      \n      \tfor(uint i=0;i<numProjects; i++) {\n            Knitts _knitts = Knitts(knittsAddress);\n            address _userId = _knitts.getUserContractAddress(projects[i].owner);\n            User _user = User(_userId);\n            _user.addProject(projects[i].title, projects[i].url, projects[i].description, points[i] , averagePoints, address(this) );\n        } \n\n        return points;\n    }\n\n    function getPoints() private returns(uint[] memory){\n        require(ended = true, \"the game has not ended\");\n        uint [] memory empty_points;\n        points = empty_points;\n        // require(msg.sender == organization, \"only organization get the points\");\n        // write quadratic funding code here\n        for(uint i=0; i < numProjects; i++){\n            uint sum = 0;\n            for(uint j=0; j<projects[i].investors.length; j++){\n                address investor = projects[i].investors[j];\n                sum += sqrt(projects[i].investments[investor]);\n            }\n            uint point = sum * sum;\n            points.push(point);\n        }\n      \t\n        \n        return points;\n    }\n\n    function distribute() public {\n        require(msg.sender == organization, \"only organization can distribute prizes\");\n        uint total_balance = address(this).balance;\n        \n        for(uint i=0; i<numProjects; i++){\n            project storage p  =  projects[i];\n            \n            payable(p.owner).transfer( (3*points[i]*total_balance)/(10*total_points) );\n\n            for(uint j=0; j<p.investors.length; j++){\n                address investor = p.investors[j];\n                payable(investor).transfer( (6 * points[i] * total_balance * p.investments[investor]) / (10 * total_points * p.total_fund) );\n            }\n        }\n\n        payable(moderator).transfer(address(this).balance);\n\n    }\n\n    function getDetails() public view returns(\n        address,//moderator\n        uint,//entry fee\n        uint,//maxParticipants\n        bool, //started\n        bool, //ended\n        bool //distributed\n    ){\n        return (moderator, entryFee, maxParticipants, started, ended, distributed);\n    }\n\n    function submissionDetails(uint projectId) public view returns(\n        address, // project owner\n        bytes[20][] memory // description\n    )  {\n        return (projects[projectId].owner, projects[projectId].description);\n    }\n\n    function sqrt(uint num) public pure returns(uint){\n        uint start = 1;\n        uint end = num;\n        uint mid = start;\n        while(start < end){\n            mid = start + (end - start)/2;\n            if(mid * mid >= num){\n                end = mid;\n            }else{\n                start = mid+1;\n            }\n        }\n        return end;\n    }\n}\n\n\ncontract User {\n    string name;\n  \taddress id; //metamask address of corresponding user\n  \tuint numProjects=0;\n  \n  constructor( address _id, string memory _name ) {\n  \tname = _name;\n    id = _id;\n  }\n  \n  \n  struct project{\n      string title;\n      string url;\n        bytes[20][] description;\n        // uint total_fund;\n        uint point;\n        uint average_point;\n        address submittedOn;\n  }\n\t// mapping(uint => project) projects;\n\n    project[20] projects;\n  \n  function addProject(string memory title, string memory url, bytes[20][] memory description, uint point, uint average_point, address submittedOn) public {\n    project storage p = projects[numProjects++];\n    p.title = title;\n    p.url = url;\n    p.description = description;\n    p.point = point;\n    p.average_point = average_point;\n    p.submittedOn = submittedOn;\n  }\n  \n  function getDetails() public view returns (project[20] memory){\n    \treturn projects;\n  }\n  \n}\n\n\n\n\n\n\n\n\n\n\n\n\n\n\n\n\n",
  "sourcePath": "/home/thrishik/Desktop/new-knitts/back/contracts/League.sol",
  "compiler": {
    "name": "solc",
    "version": "0.8.0+commit.c7dfd78e.Emscripten.clang"
  },
  "schemaVersion": "3.4.3",
  "updatedAt": "2021-09-30T06:28:32.620Z",
  "networkType": "ethereum",
  "devdoc": {
    "kind": "dev",
    "methods": {},
    "version": 1
  },
  "userdoc": {
    "kind": "user",
    "methods": {},
    "version": 1
  }
}